{
  "_format": "hh-sol-artifact-1",
  "contractName": "ReputationRegistry",
  "sourceName": "contracts/ReputationRegistry.sol",
  "abi": [
    {
      "inputs": [],
      "stateMutability": "nonpayable",
      "type": "constructor"
    },
    {
      "inputs": [],
      "name": "NotAuthorized",
      "type": "error"
    },
    {
      "inputs": [],
      "name": "NotOwner",
      "type": "error"
    },
    {
      "anonymous": false,
      "inputs": [
        {
          "indexed": true,
          "internalType": "address",
          "name": "addr",
          "type": "address"
        },
        {
          "indexed": false,
          "internalType": "bool",
          "name": "auth",
          "type": "bool"
        }
      ],
      "name": "AuthorizationSet",
      "type": "event"
    },
    {
      "anonymous": false,
      "inputs": [
        {
          "indexed": true,
          "internalType": "bytes32",
          "name": "alphaId",
          "type": "bytes32"
        },
        {
          "indexed": false,
          "internalType": "bool",
          "name": "accepted",
          "type": "bool"
        },
        {
          "indexed": false,
          "internalType": "uint256",
          "name": "apyBps",
          "type": "uint256"
        },
        {
          "indexed": false,
          "internalType": "uint256",
          "name": "investmentWei",
          "type": "uint256"
        },
        {
          "indexed": false,
          "internalType": "uint256",
          "name": "feeWei",
          "type": "uint256"
        }
      ],
      "name": "DealRecorded",
      "type": "event"
    },
    {
      "inputs": [
        {
          "internalType": "address",
          "name": "",
          "type": "address"
        }
      ],
      "name": "authorized",
      "outputs": [
        {
          "internalType": "bool",
          "name": "",
          "type": "bool"
        }
      ],
      "stateMutability": "view",
      "type": "function"
    },
    {
      "inputs": [
        {
          "internalType": "bytes32",
          "name": "alphaId",
          "type": "bytes32"
        }
      ],
      "name": "getAvgApy",
      "outputs": [
        {
          "internalType": "uint256",
          "name": "",
          "type": "uint256"
        }
      ],
      "stateMutability": "view",
      "type": "function"
    },
    {
      "inputs": [
        {
          "internalType": "bytes32",
          "name": "alphaId",
          "type": "bytes32"
        }
      ],
      "name": "getDealHistory",
      "outputs": [
        {
          "components": [
            {
              "internalType": "bytes32",
              "name": "alphaId",
              "type": "bytes32"
            },
            {
              "internalType": "bool",
              "name": "accepted",
              "type": "bool"
            },
            {
              "internalType": "uint256",
              "name": "apyBps",
              "type": "uint256"
            },
            {
              "internalType": "uint256",
              "name": "investmentWei",
              "type": "uint256"
            },
            {
              "internalType": "uint256",
              "name": "feeEarnedWei",
              "type": "uint256"
            },
            {
              "internalType": "uint256",
              "name": "timestamp",
              "type": "uint256"
            }
          ],
          "internalType": "struct ReputationRegistry.DealRecord[]",
          "name": "",
          "type": "tuple[]"
        }
      ],
      "stateMutability": "view",
      "type": "function"
    },
    {
      "inputs": [
        {
          "internalType": "bytes32",
          "name": "alphaId",
          "type": "bytes32"
        }
      ],
      "name": "getScore",
      "outputs": [
        {
          "internalType": "uint256",
          "name": "",
          "type": "uint256"
        }
      ],
      "stateMutability": "view",
      "type": "function"
    },
    {
      "inputs": [
        {
          "internalType": "bytes32",
          "name": "alphaId",
          "type": "bytes32"
        }
      ],
      "name": "getStats",
      "outputs": [
        {
          "components": [
            {
              "internalType": "uint256",
              "name": "totalPitched",
              "type": "uint256"
            },
            {
              "internalType": "uint256",
              "name": "totalAccepted",
              "type": "uint256"
            },
            {
              "internalType": "uint256",
              "name": "totalInvestedWei",
              "type": "uint256"
            },
            {
              "internalType": "uint256",
              "name": "totalFeesEarnedWei",
              "type": "uint256"
            },
            {
              "internalType": "uint256",
              "name": "sumApyBps",
              "type": "uint256"
            },
            {
              "internalType": "uint256",
              "name": "lastDealAt",
              "type": "uint256"
            }
          ],
          "internalType": "struct ReputationRegistry.AlphaStats",
          "name": "",
          "type": "tuple"
        }
      ],
      "stateMutability": "view",
      "type": "function"
    },
    {
      "inputs": [],
      "name": "owner",
      "outputs": [
        {
          "internalType": "address",
          "name": "",
          "type": "address"
        }
      ],
      "stateMutability": "view",
      "type": "function"
    },
    {
      "inputs": [
        {
          "internalType": "bytes32",
          "name": "alphaId",
          "type": "bytes32"
        },
        {
          "internalType": "bool",
          "name": "accepted",
          "type": "bool"
        },
        {
          "internalType": "uint256",
          "name": "apyBps",
          "type": "uint256"
        },
        {
          "internalType": "uint256",
          "name": "investmentWei",
          "type": "uint256"
        },
        {
          "internalType": "uint256",
          "name": "feeEarnedWei",
          "type": "uint256"
        }
      ],
      "name": "recordDeal",
      "outputs": [],
      "stateMutability": "nonpayable",
      "type": "function"
    },
    {
      "inputs": [
        {
          "internalType": "address",
          "name": "addr",
          "type": "address"
        },
        {
          "internalType": "bool",
          "name": "auth",
          "type": "bool"
        }
      ],
      "name": "setAuthorized",
      "outputs": [],
      "stateMutability": "nonpayable",
      "type": "function"
    },
    {
      "inputs": [
        {
          "internalType": "bytes32",
          "name": "",
          "type": "bytes32"
        }
      ],
      "name": "stats",
      "outputs": [
        {
          "internalType": "uint256",
          "name": "totalPitched",
          "type": "uint256"
        },
        {
          "internalType": "uint256",
          "name": "totalAccepted",
          "type": "uint256"
        },
        {
          "internalType": "uint256",
          "name": "totalInvestedWei",
          "type": "uint256"
        },
        {
          "internalType": "uint256",
          "name": "totalFeesEarnedWei",
          "type": "uint256"
        },
        {
          "internalType": "uint256",
          "name": "sumApyBps",
          "type": "uint256"
        },
        {
          "internalType": "uint256",
          "name": "lastDealAt",
          "type": "uint256"
        }
      ],
      "stateMutability": "view",
      "type": "function"
    },
    {
      "inputs": [
        {
          "internalType": "address",
          "name": "newOwner",
          "type": "address"
        }
      ],
      "name": "transferOwnership",
      "outputs": [],
      "stateMutability": "nonpayable",
      "type": "function"
    }
  ],
  "bytecode": "0x608060405234801561001057600080fd5b50600080546001600160a01b0319163390811782558152600360205260409020805460ff19166001179055610c788061004a6000396000f3fe608060405234801561001057600080fd5b506004361061009e5760003560e01c80637ba53285116100665780637ba53285146101745780638da5cb5b14610187578063ae97568c146101b2578063b918161114610223578063f2fde38b1461025657600080fd5b80630bb700dc146100a35780630cc8211e1461010b5780632fc5b3911461012b578063711bf9b214610140578063740bb64f14610153575b600080fd5b6100b66100b1366004610a2f565b610269565b6040516101029190600060c082019050825182526020830151602083015260408301516040830152606083015160608301526080830151608083015260a083015160a083015292915050565b60405180910390f35b61011e610119366004610a2f565b6102fa565b6040516101029190610a48565b61013e610139366004610ad7565b6103a7565b005b61013e61014e366004610b34565b61067a565b610166610161366004610a2f565b610704565b604051908152602001610102565b610166610182366004610a2f565b61077e565b60005461019a906001600160a01b031681565b6040516001600160a01b039091168152602001610102565b6101f66101c0366004610a2f565b60016020819052600091825260409091208054918101546002820154600383015460048401546005909401549293919290919086565b604080519687526020870195909552938501929092526060840152608083015260a082015260c001610102565b610246610231366004610b67565b60036020526000908152604090205460ff1681565b6040519015158152602001610102565b61013e610264366004610b67565b61090c565b6102a26040518060c001604052806000815260200160008152602001600081526020016000815260200160008152602001600081525090565b50600090815260016020818152604092839020835160c081018552815481529281015491830191909152600281015492820192909252600382015460608201526004820154608082015260059091015460a082015290565b606060026000838152602001908152602001600020805480602002602001604051908101604052809291908181526020016000905b8282101561039c5760008481526020908190206040805160c081018252600686029092018054835260018082015460ff1615158486015260028201549284019290925260038101546060840152600481015460808401526005015460a0830152908352909201910161032f565b505050509050919050565b3360009081526003602052604090205460ff161580156103d257506000546001600160a01b03163314155b156103f05760405163ea8e4eb560e01b815260040160405180910390fd5b600085815260016020526040812080549091829061040d83610b98565b909155505042600582015584156104855760018101805490600061043083610b98565b9190505550828160020160008282546104499190610bb1565b92505081905550818160030160008282546104649190610bb1565b925050819055508381600401600082825461047f9190610bb1565b90915550505b600086815260026020526040902080546032116105a45760005b81546104ad90600190610bca565b81101561055357816104c0826001610bb1565b815481106104d0576104d0610bdd565b90600052602060002090600602018282815481106104f0576104f0610bdd565b600091825260209091208254600690920201908155600180830154818301805460ff191660ff909216151591909117905560028084015490830155600380840154908301556004808401549083015560059283015492909101919091550161049f565b508080548061056457610564610bf3565b60008281526020812060066000199093019283020181815560018101805460ff191690556002810182905560038101829055600481018290556005015590555b6040805160c08101825288815287151560208083018281528385018a815260608086018b815260808088018c81524260a08a019081528b5460018082018e5560008e81528a90209b516006909202909b019081559651998701805460ff19169a15159a909a179099559351600286015590516003850155915160048401559451600590920191909155845192835290820189905292810187905290810185905288917fd895ac1f8f25167a79e098f9a9af5ed13c68fc80fb15b482591b67476c4097ee910160405180910390a250505050505050565b6000546001600160a01b031633146106a5576040516330cd747160e01b815260040160405180910390fd5b6001600160a01b038216600081815260036020908152604091829020805460ff191685151590811790915591519182527f5056a36abc1db1625034fdf114a164a0345b3ccf992fc1d51055e017375f4732910160405180910390a25050565b6000818152600160208181526040808420815160c081018352815481529381015492840183905260028101549184019190915260038101546060840152600481015460808401526005015460a083015282036107635750600092915050565b806020015181608001516107779190610c09565b9392505050565b6000818152600160208181526040808420815160c0810183528154808252948201549381019390935260028101549183019190915260038101546060830152600481015460808301526005015460a08201529082036107e05750600092915050565b80516020820151600091906107f6906064610c2b565b6108009190610c09565b90506000601483600001511161081757825161081a565b60145b90506000601461082b836064610c2b565b6108359190610c09565b905060008085602001511161084b57600061085f565b8460200151856080015161085f9190610c09565b9050600061086e606483610c09565b9050600060148211610896576014610887836064610c2b565b6108919190610c09565b610899565b60645b905060006108a68a610959565b905060646108b582600a610c2b565b6108c084600f610c2b565b6108cb886019610c2b565b6108d68b6032610c2b565b6108e09190610bb1565b6108ea9190610bb1565b6108f49190610bb1565b6108fe9190610c09565b9a9950505050505050505050565b6000546001600160a01b03163314610937576040516330cd747160e01b815260040160405180910390fd5b600080546001600160a01b0319166001600160a01b0392909216919091179055565b6000818152600260205260408120805482036109785750600092915050565b8054600090600a1061098b576000610999565b815461099990600a90610bca565b90506000808284805490506109ae9190610bca565b9050825b84548110156109ff578481815481106109cd576109cd610bdd565b600091825260209091206001600690920201015460ff16156109f757826109f381610b98565b9350505b6001016109b2565b5060008111610a0f576000610a25565b80610a1b836064610c2b565b610a259190610c09565b9695505050505050565b600060208284031215610a4157600080fd5b5035919050565b602080825282518282018190526000919060409081850190868401855b82811015610ab557815180518552868101511515878601528581015186860152606080820151908601526080808201519086015260a0908101519085015260c09093019290850190600101610a65565b5091979650505050505050565b80358015158114610ad257600080fd5b919050565b600080600080600060a08688031215610aef57600080fd5b85359450610aff60208701610ac2565b94979496505050506040830135926060810135926080909101359150565b80356001600160a01b0381168114610ad257600080fd5b60008060408385031215610b4757600080fd5b610b5083610b1d565b9150610b5e60208401610ac2565b90509250929050565b600060208284031215610b7957600080fd5b61077782610b1d565b634e487b7160e01b600052601160045260246000fd5b600060018201610baa57610baa610b82565b5060010190565b80820180821115610bc457610bc4610b82565b92915050565b81810381811115610bc457610bc4610b82565b634e487b7160e01b600052603260045260246000fd5b634e487b7160e01b600052603160045260246000fd5b600082610c2657634e487b7160e01b600052601260045260246000fd5b500490565b8082028115828204841417610bc457610bc4610b8256fea2646970667358221220b58cd8610aa45183f5939dca27fe495f4d899dfcbf0ff5dd192e5a90bd78dfae64736f6c63430008180033",
  "linkReferences": {},
  "deployedLinkReferences": {}
}