{
  "_format": "hh-sol-artifact-1",
  "contractName": "ReputationRegistry",
  "sourceName": "contracts/ReputationRegistry.sol",
  "abi": [
    {
      "inputs": [],
      "stateMutability": "nonpayable",
      "type": "constructor"
    },
    {
      "inputs": [],
      "name": "NotAuthorized",
      "type": "error"
    },
    {
      "inputs": [],
      "name": "NotOwner",
      "type": "error"
    },
    {
      "anonymous": false,
      "inputs": [
        {
          "indexed": true,
          "internalType": "address",
          "name": "addr",
          "type": "address"
        },
        {
          "indexed": false,
          "internalType": "bool",
          "name": "authorized",
          "type": "bool"
        }
      ],
      "name": "AuthorizationSet",
      "type": "event"
    },
    {
      "anonymous": false,
      "inputs": [
        {
          "indexed": true,
          "internalType": "address",
          "name": "alpha",
          "type": "address"
        },
        {
          "indexed": false,
          "internalType": "bool",
          "name": "accepted",
          "type": "bool"
        },
        {
          "indexed": false,
          "internalType": "uint256",
          "name": "apyBps",
          "type": "uint256"
        },
        {
          "indexed": false,
          "internalType": "uint256",
          "name": "investmentWei",
          "type": "uint256"
        },
        {
          "indexed": false,
          "internalType": "uint256",
          "name": "feeWei",
          "type": "uint256"
        }
      ],
      "name": "DealRecorded",
      "type": "event"
    },
    {
      "inputs": [
        {
          "internalType": "address",
          "name": "",
          "type": "address"
        }
      ],
      "name": "authorized",
      "outputs": [
        {
          "internalType": "bool",
          "name": "",
          "type": "bool"
        }
      ],
      "stateMutability": "view",
      "type": "function"
    },
    {
      "inputs": [
        {
          "internalType": "address",
          "name": "alpha",
          "type": "address"
        }
      ],
      "name": "getAvgApy",
      "outputs": [
        {
          "internalType": "uint256",
          "name": "apyBps",
          "type": "uint256"
        }
      ],
      "stateMutability": "view",
      "type": "function"
    },
    {
      "inputs": [
        {
          "internalType": "address",
          "name": "alpha",
          "type": "address"
        }
      ],
      "name": "getDealHistory",
      "outputs": [
        {
          "components": [
            {
              "internalType": "address",
              "name": "alphaAgent",
              "type": "address"
            },
            {
              "internalType": "bool",
              "name": "accepted",
              "type": "bool"
            },
            {
              "internalType": "uint256",
              "name": "apyBps",
              "type": "uint256"
            },
            {
              "internalType": "uint256",
              "name": "investmentWei",
              "type": "uint256"
            },
            {
              "internalType": "uint256",
              "name": "feeEarnedWei",
              "type": "uint256"
            },
            {
              "internalType": "uint256",
              "name": "timestamp",
              "type": "uint256"
            }
          ],
          "internalType": "struct ReputationRegistry.DealRecord[]",
          "name": "",
          "type": "tuple[]"
        }
      ],
      "stateMutability": "view",
      "type": "function"
    },
    {
      "inputs": [
        {
          "internalType": "address",
          "name": "alpha",
          "type": "address"
        }
      ],
      "name": "getScore",
      "outputs": [
        {
          "internalType": "uint256",
          "name": "",
          "type": "uint256"
        }
      ],
      "stateMutability": "view",
      "type": "function"
    },
    {
      "inputs": [
        {
          "internalType": "address",
          "name": "alpha",
          "type": "address"
        }
      ],
      "name": "getStats",
      "outputs": [
        {
          "components": [
            {
              "internalType": "uint256",
              "name": "totalPitched",
              "type": "uint256"
            },
            {
              "internalType": "uint256",
              "name": "totalAccepted",
              "type": "uint256"
            },
            {
              "internalType": "uint256",
              "name": "totalInvestedWei",
              "type": "uint256"
            },
            {
              "internalType": "uint256",
              "name": "totalFeesEarnedWei",
              "type": "uint256"
            },
            {
              "internalType": "uint256",
              "name": "sumApyBps",
              "type": "uint256"
            },
            {
              "internalType": "uint256",
              "name": "lastDealAt",
              "type": "uint256"
            }
          ],
          "internalType": "struct ReputationRegistry.AlphaStats",
          "name": "",
          "type": "tuple"
        }
      ],
      "stateMutability": "view",
      "type": "function"
    },
    {
      "inputs": [],
      "name": "owner",
      "outputs": [
        {
          "internalType": "address",
          "name": "",
          "type": "address"
        }
      ],
      "stateMutability": "view",
      "type": "function"
    },
    {
      "inputs": [
        {
          "internalType": "address",
          "name": "alpha",
          "type": "address"
        },
        {
          "internalType": "bool",
          "name": "accepted",
          "type": "bool"
        },
        {
          "internalType": "uint256",
          "name": "apyBps",
          "type": "uint256"
        },
        {
          "internalType": "uint256",
          "name": "investmentWei",
          "type": "uint256"
        },
        {
          "internalType": "uint256",
          "name": "feeEarnedWei",
          "type": "uint256"
        }
      ],
      "name": "recordDeal",
      "outputs": [],
      "stateMutability": "nonpayable",
      "type": "function"
    },
    {
      "inputs": [
        {
          "internalType": "address",
          "name": "addr",
          "type": "address"
        },
        {
          "internalType": "bool",
          "name": "auth",
          "type": "bool"
        }
      ],
      "name": "setAuthorized",
      "outputs": [],
      "stateMutability": "nonpayable",
      "type": "function"
    },
    {
      "inputs": [
        {
          "internalType": "address",
          "name": "",
          "type": "address"
        }
      ],
      "name": "stats",
      "outputs": [
        {
          "internalType": "uint256",
          "name": "totalPitched",
          "type": "uint256"
        },
        {
          "internalType": "uint256",
          "name": "totalAccepted",
          "type": "uint256"
        },
        {
          "internalType": "uint256",
          "name": "totalInvestedWei",
          "type": "uint256"
        },
        {
          "internalType": "uint256",
          "name": "totalFeesEarnedWei",
          "type": "uint256"
        },
        {
          "internalType": "uint256",
          "name": "sumApyBps",
          "type": "uint256"
        },
        {
          "internalType": "uint256",
          "name": "lastDealAt",
          "type": "uint256"
        }
      ],
      "stateMutability": "view",
      "type": "function"
    },
    {
      "inputs": [
        {
          "internalType": "address",
          "name": "newOwner",
          "type": "address"
        }
      ],
      "name": "transferOwnership",
      "outputs": [],
      "stateMutability": "nonpayable",
      "type": "function"
    }
  ],
  "bytecode": "0x608060405234801561001057600080fd5b50600080546001600160a01b0319163390811782558152600360205260409020805460ff19166001179055610d058061004a6000396000f3fe608060405234801561001057600080fd5b506004361061009e5760003560e01c8063b918161111610066578063b918161114610190578063c23f85d6146101c3578063d241a10d14610222578063d47875d014610243578063f2fde38b1461025657600080fd5b8063343d762b146100a35780635cfd57f2146100cc578063711bf9b2146100e15780638bcdcbf3146100f45780638da5cb5b14610165575b600080fd5b6100b66100b1366004610ae1565b610269565b6040516100c39190610afc565b60405180910390f35b6100df6100da366004610b8f565b610325565b005b6100df6100ef366004610bdc565b610654565b610138610102366004610ae1565b60016020819052600091825260409091208054918101546002820154600383015460048401546005909401549293919290919086565b604080519687526020870195909552938501929092526060840152608083015260a082015260c0016100c3565b600054610178906001600160a01b031681565b6040516001600160a01b0390911681526020016100c3565b6101b361019e366004610ae1565b60036020526000908152604090205460ff1681565b60405190151581526020016100c3565b6101d66101d1366004610ae1565b6106de565b6040516100c39190600060c082019050825182526020830151602083015260408301516040830152606083015160608301526080830151608083015260a083015160a083015292915050565b610235610230366004610ae1565b610778565b6040519081526020016100c3565b610235610251366004610ae1565b6107fc565b6100df610264366004610ae1565b610994565b6001600160a01b0381166000908152600260209081526040808320805482518185028101850190935280835260609492939192909184015b8282101561031a5760008481526020908190206040805160c0810182526005860290920180546001600160a01b0381168452600160a01b900460ff161515838501526001808201549284019290925260028101546060840152600381015460808401526004015460a083015290835290920191016102a1565b505050509050919050565b3360009081526003602052604090205460ff1615801561035057506000546001600160a01b03163314155b1561036e5760405163ea8e4eb560e01b815260040160405180910390fd5b6001600160a01b038516600090815260016020526040812080549091829061039583610c25565b9091555050426005820155841561040d576001810180549060006103b883610c25565b9190505550828160020160008282546103d19190610c3e565b92505081905550818160030160008282546103ec9190610c3e565b92505081905550838160040160008282546104079190610c3e565b90915550505b6001600160a01b038616600090815260026020526040902080546032116105585760005b815461043f90600190610c57565b8110156105085781610452826001610c3e565b8154811061046257610462610c6a565b906000526020600020906005020182828154811061048257610482610c6a565b60009182526020909120825460059092020180546001600160a01b039092166001600160a01b031983168117825583546001600160a81b031990931617600160a01b9283900460ff161515909202919091178155600180830154818301556002808401549083015560038084015490830155600492830154929091019190915501610431565b508080548061051957610519610c80565b60008281526020812060056000199093019283020180546001600160a81b03191681556001810182905560028101829055600381018290556004015590555b6040805160c0810182526001600160a01b03808a1680835289151560208085019182528486018b8152606086018b8152608087018b81524260a089019081528a5460018181018d5560008d81529690962099516005909102909901805496511515600160a01b026001600160a81b03199097169990981698909817949094178655905191850191909155516002840155516003830155915160049091015590517f91a29e8e33d4b3148999ec5bc48596581e59a4c122c28bde4b969f03b4d8dc8b90610643908990899089908990931515845260208401929092526040830152606082015260800190565b60405180910390a250505050505050565b6000546001600160a01b0316331461067f576040516330cd747160e01b815260040160405180910390fd5b6001600160a01b038216600081815260036020908152604091829020805460ff191685151590811790915591519182527f5056a36abc1db1625034fdf114a164a0345b3ccf992fc1d51055e017375f4732910160405180910390a25050565b6107176040518060c001604052806000815260200160008152602001600081526020016000815260200160008152602001600081525090565b506001600160a01b0316600090815260016020818152604092839020835160c081018552815481529281015491830191909152600281015492820192909252600382015460608201526004820154608082015260059091015460a082015290565b6001600160a01b0381166000908152600160208181526040808420815160c081018352815481529381015492840183905260028101549184019190915260038101546060840152600481015460808401526005015460a083015282036107e15750600092915050565b806020015181608001516107f59190610c96565b9392505050565b6001600160a01b0381166000908152600160208181526040808420815160c0810183528154808252948201549381019390935260028101549183019190915260038101546060830152600481015460808301526005015460a08201529082036108685750600092915050565b805160208201516000919061087e906064610cb8565b6108889190610c96565b90506000601483600001511161089f5782516108a2565b60145b9050600060146108b3836064610cb8565b6108bd9190610c96565b90506000808560200151116108d35760006108e7565b846020015185608001516108e79190610c96565b905060006108f6606483610c96565b905060006014821161091e57601461090f836064610cb8565b6109199190610c96565b610921565b60645b9050600061092e8a6109e1565b9050606461093d82600a610cb8565b61094884600f610cb8565b610953886019610cb8565b61095e8b6032610cb8565b6109689190610c3e565b6109729190610c3e565b61097c9190610c3e565b6109869190610c96565b9a9950505050505050505050565b6000546001600160a01b031633146109bf576040516330cd747160e01b815260040160405180910390fd5b600080546001600160a01b0319166001600160a01b0392909216919091179055565b6001600160a01b038116600090815260026020526040812080548203610a0a5750600092915050565b8054600090600a10610a1d576000610a2b565b8154610a2b90600a90610c57565b9050600080828480549050610a409190610c57565b9050825b8454811015610a9557848181548110610a5f57610a5f610c6a565b6000918252602090912060059091020154600160a01b900460ff1615610a8d5782610a8981610c25565b9350505b600101610a44565b5060008111610aa5576000610abb565b80610ab1836064610cb8565b610abb9190610c96565b9695505050505050565b80356001600160a01b0381168114610adc57600080fd5b919050565b600060208284031215610af357600080fd5b6107f582610ac5565b602080825282518282018190526000919060409081850190868401855b82811015610b7257815180516001600160a01b03168552868101511515878601528581015186860152606080820151908601526080808201519086015260a0908101519085015260c09093019290850190600101610b19565b5091979650505050505050565b80358015158114610adc57600080fd5b600080600080600060a08688031215610ba757600080fd5b610bb086610ac5565b9450610bbe60208701610b7f565b94979496505050506040830135926060810135926080909101359150565b60008060408385031215610bef57600080fd5b610bf883610ac5565b9150610c0660208401610b7f565b90509250929050565b634e487b7160e01b600052601160045260246000fd5b600060018201610c3757610c37610c0f565b5060010190565b80820180821115610c5157610c51610c0f565b92915050565b81810381811115610c5157610c51610c0f565b634e487b7160e01b600052603260045260246000fd5b634e487b7160e01b600052603160045260246000fd5b600082610cb357634e487b7160e01b600052601260045260246000fd5b500490565b8082028115828204841417610c5157610c51610c0f56fea26469706673582212203ba109b674e5477aee2f1f644c3184232a8d93cecb1ad2bce7b94a89005dd12e64736f6c63430008180033",
  "linkReferences": {},
  "deployedLinkReferences": {}
}