{
  "_format": "hh-sol-artifact-1",
  "contractName": "SmartLayerVault",
  "sourceName": "contracts/SmartLayerVault.sol",
  "abi": [
    {
      "inputs": [
        {
          "internalType": "address",
          "name": "_reputationRegistry",
          "type": "address"
        }
      ],
      "stateMutability": "nonpayable",
      "type": "constructor"
    },
    {
      "inputs": [],
      "name": "InsufficientBalance",
      "type": "error"
    },
    {
      "inputs": [],
      "name": "NoAgentAssigned",
      "type": "error"
    },
    {
      "inputs": [],
      "name": "NotBetaAgent",
      "type": "error"
    },
    {
      "inputs": [],
      "name": "NotOwner",
      "type": "error"
    },
    {
      "inputs": [],
      "name": "TransferFailed",
      "type": "error"
    },
    {
      "inputs": [],
      "name": "ZeroAmount",
      "type": "error"
    },
    {
      "anonymous": false,
      "inputs": [
        {
          "indexed": true,
          "internalType": "address",
          "name": "user",
          "type": "address"
        },
        {
          "indexed": true,
          "internalType": "address",
          "name": "betaAgent",
          "type": "address"
        }
      ],
      "name": "AgentAssigned",
      "type": "event"
    },
    {
      "anonymous": false,
      "inputs": [
        {
          "indexed": true,
          "internalType": "address",
          "name": "user",
          "type": "address"
        },
        {
          "indexed": true,
          "internalType": "address",
          "name": "alphaAgent",
          "type": "address"
        },
        {
          "indexed": true,
          "internalType": "address",
          "name": "destination",
          "type": "address"
        },
        {
          "indexed": false,
          "internalType": "uint256",
          "name": "investmentAmount",
          "type": "uint256"
        },
        {
          "indexed": false,
          "internalType": "uint256",
          "name": "feeAmount",
          "type": "uint256"
        },
        {
          "indexed": false,
          "internalType": "uint256",
          "name": "apyBps",
          "type": "uint256"
        }
      ],
      "name": "DealExecuted",
      "type": "event"
    },
    {
      "anonymous": false,
      "inputs": [
        {
          "indexed": true,
          "internalType": "address",
          "name": "user",
          "type": "address"
        },
        {
          "indexed": false,
          "internalType": "uint256",
          "name": "amount",
          "type": "uint256"
        }
      ],
      "name": "Deposited",
      "type": "event"
    },
    {
      "anonymous": false,
      "inputs": [
        {
          "indexed": true,
          "internalType": "address",
          "name": "user",
          "type": "address"
        },
        {
          "indexed": false,
          "internalType": "uint256",
          "name": "amount",
          "type": "uint256"
        }
      ],
      "name": "Withdrawn",
      "type": "event"
    },
    {
      "inputs": [],
      "name": "BPS_DENOM",
      "outputs": [
        {
          "internalType": "uint256",
          "name": "",
          "type": "uint256"
        }
      ],
      "stateMutability": "view",
      "type": "function"
    },
    {
      "inputs": [],
      "name": "FEE_BPS",
      "outputs": [
        {
          "internalType": "uint256",
          "name": "",
          "type": "uint256"
        }
      ],
      "stateMutability": "view",
      "type": "function"
    },
    {
      "inputs": [
        {
          "internalType": "address",
          "name": "agent",
          "type": "address"
        }
      ],
      "name": "assignAgent",
      "outputs": [],
      "stateMutability": "nonpayable",
      "type": "function"
    },
    {
      "inputs": [
        {
          "internalType": "address",
          "name": "",
          "type": "address"
        }
      ],
      "name": "balances",
      "outputs": [
        {
          "internalType": "uint256",
          "name": "",
          "type": "uint256"
        }
      ],
      "stateMutability": "view",
      "type": "function"
    },
    {
      "inputs": [
        {
          "internalType": "address",
          "name": "",
          "type": "address"
        }
      ],
      "name": "betaAgent",
      "outputs": [
        {
          "internalType": "address",
          "name": "",
          "type": "address"
        }
      ],
      "stateMutability": "view",
      "type": "function"
    },
    {
      "inputs": [],
      "name": "deposit",
      "outputs": [],
      "stateMutability": "payable",
      "type": "function"
    },
    {
      "inputs": [
        {
          "internalType": "address",
          "name": "user",
          "type": "address"
        },
        {
          "internalType": "address payable",
          "name": "alphaAgent",
          "type": "address"
        },
        {
          "internalType": "address payable",
          "name": "destination",
          "type": "address"
        },
        {
          "internalType": "uint256",
          "name": "amount",
          "type": "uint256"
        },
        {
          "internalType": "uint256",
          "name": "apyBps",
          "type": "uint256"
        }
      ],
      "name": "execute",
      "outputs": [],
      "stateMutability": "nonpayable",
      "type": "function"
    },
    {
      "inputs": [
        {
          "internalType": "address",
          "name": "agent",
          "type": "address"
        }
      ],
      "name": "getAgentUsers",
      "outputs": [
        {
          "internalType": "address[]",
          "name": "",
          "type": "address[]"
        }
      ],
      "stateMutability": "view",
      "type": "function"
    },
    {
      "inputs": [
        {
          "internalType": "address",
          "name": "user",
          "type": "address"
        }
      ],
      "name": "getBalance",
      "outputs": [
        {
          "internalType": "uint256",
          "name": "",
          "type": "uint256"
        }
      ],
      "stateMutability": "view",
      "type": "function"
    },
    {
      "inputs": [
        {
          "internalType": "address",
          "name": "user",
          "type": "address"
        }
      ],
      "name": "getBetaAgent",
      "outputs": [
        {
          "internalType": "address",
          "name": "",
          "type": "address"
        }
      ],
      "stateMutability": "view",
      "type": "function"
    },
    {
      "inputs": [],
      "name": "owner",
      "outputs": [
        {
          "internalType": "address",
          "name": "",
          "type": "address"
        }
      ],
      "stateMutability": "view",
      "type": "function"
    },
    {
      "inputs": [],
      "name": "reputationRegistry",
      "outputs": [
        {
          "internalType": "contract ReputationRegistry",
          "name": "",
          "type": "address"
        }
      ],
      "stateMutability": "view",
      "type": "function"
    },
    {
      "inputs": [],
      "name": "totalValueLocked",
      "outputs": [
        {
          "internalType": "uint256",
          "name": "",
          "type": "uint256"
        }
      ],
      "stateMutability": "view",
      "type": "function"
    },
    {
      "inputs": [
        {
          "internalType": "address",
          "name": "newOwner",
          "type": "address"
        }
      ],
      "name": "transferOwnership",
      "outputs": [],
      "stateMutability": "nonpayable",
      "type": "function"
    },
    {
      "inputs": [
        {
          "internalType": "uint256",
          "name": "amount",
          "type": "uint256"
        }
      ],
      "name": "withdraw",
      "outputs": [],
      "stateMutability": "nonpayable",
      "type": "function"
    },
    {
      "stateMutability": "payable",
      "type": "receive"
    }
  ],
  "bytecode": "0x60a060405234801561001057600080fd5b50604051610bc1380380610bc183398101604081905261002f91610052565b600080546001600160a01b031916331790556001600160a01b0316608052610082565b60006020828403121561006457600080fd5b81516001600160a01b038116811461007b57600080fd5b9392505050565b608051610b1d6100a46000396000818161030501526106f70152610b1d6000f3fe6080604052600436106100ec5760003560e01c8063a40fbe291161008a578063d0e30db011610059578063d0e30db014610327578063ec18154e1461032f578063f2fde38b14610342578063f8b2cb4f1461036257600080fd5b8063a40fbe2914610287578063a46c792c146102bd578063bf333f2c146102dd578063c8db44e3146102f357600080fd5b806347fb6d2e116100c657806347fb6d2e146101d35780636637e38c1461022457806373b1d6901461023a5780638da5cb5b1461026757600080fd5b806327e235e3146101515780632e1a7d4d146101915780633343a585146101b357600080fd5b3661014c573360009081526001602052604081208054349290610110908490610985565b909155505060405134815233907f2da466a7b24304f47e87fa2e1e5a81b9831ce54fec19055ce277ca2f39ba42c49060200160405180910390a2005b600080fd5b34801561015d57600080fd5b5061017e61016c3660046109b6565b60016020526000908152604090205481565b6040519081526020015b60405180910390f35b34801561019d57600080fd5b506101b16101ac3660046109da565b610398565b005b3480156101bf57600080fd5b506101b16101ce3660046109f3565b6104af565b3480156101df57600080fd5b5061020c6101ee3660046109b6565b6001600160a01b039081166000908152600260205260409020541690565b6040516001600160a01b039091168152602001610188565b34801561023057600080fd5b5061017e61271081565b34801561024657600080fd5b5061025a6102553660046109b6565b6107b2565b6040516101889190610a4e565b34801561027357600080fd5b5060005461020c906001600160a01b031681565b34801561029357600080fd5b5061020c6102a23660046109b6565b6002602052600090815260409020546001600160a01b031681565b3480156102c957600080fd5b506101b16102d83660046109b6565b610828565b3480156102e957600080fd5b5061017e61012c81565b3480156102ff57600080fd5b5061020c7f000000000000000000000000000000000000000000000000000000000000000081565b6101b16108a6565b34801561033b57600080fd5b504761017e565b34801561034e57600080fd5b506101b161035d3660046109b6565b610922565b34801561036e57600080fd5b5061017e61037d3660046109b6565b6001600160a01b031660009081526001602052604090205490565b806000036103b957604051631f2a200560e01b815260040160405180910390fd5b336000908152600160205260409020548111156103e957604051631e9acf1760e31b815260040160405180910390fd5b3360009081526001602052604081208054839290610408908490610a9b565b9091555050604051600090339083908381818185875af1925050503d806000811461044f576040519150601f19603f3d011682016040523d82523d6000602084013e610454565b606091505b5050905080610476576040516312171d8360e31b815260040160405180910390fd5b60405182815233907f7084f5476618d8e60b11ef0d7d3f06914655adb8793e28ff7f018d4c76d505d59060200160405180910390a25050565b6001600160a01b03858116600090815260026020526040902054166104e7576040516308ba829560e41b815260040160405180910390fd5b6001600160a01b0385811660009081526002602052604090205416331461052157604051635a60394f60e01b815260040160405180910390fd5b8160000361054257604051631f2a200560e01b815260040160405180910390fd5b6001600160a01b03851660009081526001602052604090205482111561057b57604051631e9acf1760e31b815260040160405180910390fd5b6001600160a01b038516600090815260016020526040812080548492906105a3908490610a9b565b90915550600090506127106105ba61012c85610aae565b6105c49190610ac5565b905060006105d28285610a9b565b90506000856001600160a01b03168260405160006040518083038185875af1925050503d8060008114610621576040519150601f19603f3d011682016040523d82523d6000602084013e610626565b606091505b5050905080610648576040516312171d8360e31b815260040160405180910390fd5b6000876001600160a01b03168460405160006040518083038185875af1925050503d8060008114610695576040519150601f19603f3d011682016040523d82523d6000602084013e61069a565b606091505b50509050806106bc576040516312171d8360e31b815260040160405180910390fd5b604051632e7eabf960e11b81526001600160a01b038981166004830152600160248301526044820187905260648201859052608482018690527f00000000000000000000000000000000000000000000000000000000000000001690635cfd57f29060a401600060405180830381600087803b15801561073b57600080fd5b505af115801561074f573d6000803e3d6000fd5b505060408051868152602081018890529081018890526001600160a01b03808b1693508b811692508c16907f2fc31d57fd818cf14c3b2f04670c95d80ed23ae0661518ebddf56a73c48339ff9060600160405180910390a4505050505050505050565b6001600160a01b03811660009081526003602090815260409182902080548351818402810184019094528084526060939283018282801561081c57602002820191906000526020600020905b81546001600160a01b031681526001909101906020018083116107fe575b50505050509050919050565b33600081815260026020908152604080832080546001600160a01b0387166001600160a01b0319918216811790925581855260038452828520805460018101825590865293852090930180549093168517909255519092917f7629256eb516bdc80342f65a097d4ecf4c301d15115c1d82f4a639c8c505f02491a350565b346000036108c757604051631f2a200560e01b815260040160405180910390fd5b33600090815260016020526040812080543492906108e6908490610985565b909155505060405134815233907f2da466a7b24304f47e87fa2e1e5a81b9831ce54fec19055ce277ca2f39ba42c49060200160405180910390a2565b6000546001600160a01b0316331461094d576040516330cd747160e01b815260040160405180910390fd5b600080546001600160a01b0319166001600160a01b0392909216919091179055565b634e487b7160e01b600052601160045260246000fd5b808201808211156109985761099861096f565b92915050565b6001600160a01b03811681146109b357600080fd5b50565b6000602082840312156109c857600080fd5b81356109d38161099e565b9392505050565b6000602082840312156109ec57600080fd5b5035919050565b600080600080600060a08688031215610a0b57600080fd5b8535610a168161099e565b94506020860135610a268161099e565b93506040860135610a368161099e565b94979396509394606081013594506080013592915050565b6020808252825182820181905260009190848201906040850190845b81811015610a8f5783516001600160a01b031683529284019291840191600101610a6a565b50909695505050505050565b818103818111156109985761099861096f565b80820281158282048414176109985761099861096f565b600082610ae257634e487b7160e01b600052601260045260246000fd5b50049056fea2646970667358221220475ae5788b74c8e29c8ac43294b39e99444201ab8c5b47d3fa7957ffc7ab1ff964736f6c63430008180033",
  "linkReferences": {},
  "deployedLinkReferences": {}
}