{"contracts/ReputationRegistry.sol":{"ReputationRegistry":{"abi":[{"inputs":[],"stateMutability":"nonpayable","type":"constructor"},{"inputs":[],"name":"NotAuthorized","type":"error"},{"inputs":[],"name":"NotOwner","type":"error"},{"anonymous":false,"inputs":[{"indexed":true,"internalType":"address","name":"addr","type":"address"},{"indexed":false,"internalType":"bool","name":"authorized","type":"bool"}],"name":"AuthorizationSet","type":"event"},{"anonymous":false,"inputs":[{"indexed":true,"internalType":"address","name":"alpha","type":"address"},{"indexed":false,"internalType":"bool","name":"accepted","type":"bool"},{"indexed":false,"internalType":"uint256","name":"apyBps","type":"uint256"},{"indexed":false,"internalType":"uint256","name":"investmentWei","type":"uint256"},{"indexed":false,"internalType":"uint256","name":"feeWei","type":"uint256"}],"name":"DealRecorded","type":"event"},{"inputs":[{"internalType":"address","name":"","type":"address"}],"name":"authorized","outputs":[{"internalType":"bool","name":"","type":"bool"}],"stateMutability":"view","type":"function"},{"inputs":[{"internalType":"address","name":"alpha","type":"address"}],"name":"getAvgApy","outputs":[{"internalType":"uint256","name":"apyBps","type":"uint256"}],"stateMutability":"view","type":"function"},{"inputs":[{"internalType":"address","name":"alpha","type":"address"}],"name":"getDealHistory","outputs":[{"components":[{"internalType":"address","name":"alphaAgent","type":"address"},{"internalType":"bool","name":"accepted","type":"bool"},{"internalType":"uint256","name":"apyBps","type":"uint256"},{"internalType":"uint256","name":"investmentWei","type":"uint256"},{"internalType":"uint256","name":"feeEarnedWei","type":"uint256"},{"internalType":"uint256","name":"timestamp","type":"uint256"}],"internalType":"struct ReputationRegistry.DealRecord[]","name":"","type":"tuple[]"}],"stateMutability":"view","type":"function"},{"inputs":[{"internalType":"address","name":"alpha","type":"address"}],"name":"getScore","outputs":[{"internalType":"uint256","name":"","type":"uint256"}],"stateMutability":"view","type":"function"},{"inputs":[{"internalType":"address","name":"alpha","type":"address"}],"name":"getStats","outputs":[{"components":[{"internalType":"uint256","name":"totalPitched","type":"uint256"},{"internalType":"uint256","name":"totalAccepted","type":"uint256"},{"internalType":"uint256","name":"totalInvestedWei","type":"uint256"},{"internalType":"uint256","name":"totalFeesEarnedWei","type":"uint256"},{"internalType":"uint256","name":"sumApyBps","type":"uint256"},{"internalType":"uint256","name":"lastDealAt","type":"uint256"}],"internalType":"struct ReputationRegistry.AlphaStats","name":"","type":"tuple"}],"stateMutability":"view","type":"function"},{"inputs":[],"name":"owner","outputs":[{"internalType":"address","name":"","type":"address"}],"stateMutability":"view","type":"function"},{"inputs":[{"internalType":"address","name":"alpha","type":"address"},{"internalType":"bool","name":"accepted","type":"bool"},{"internalType":"uint256","name":"apyBps","type":"uint256"},{"internalType":"uint256","name":"investmentWei","type":"uint256"},{"internalType":"uint256","name":"feeEarnedWei","type":"uint256"}],"name":"recordDeal","outputs":[],"stateMutability":"nonpayable","type":"function"},{"inputs":[{"internalType":"address","name":"addr","type":"address"},{"internalType":"bool","name":"auth","type":"bool"}],"name":"setAuthorized","outputs":[],"stateMutability":"nonpayable","type":"function"},{"inputs":[{"internalType":"address","name":"","type":"address"}],"name":"stats","outputs":[{"internalType":"uint256","name":"totalPitched","type":"uint256"},{"internalType":"uint256","name":"totalAccepted","type":"uint256"},{"internalType":"uint256","name":"totalInvestedWei","type":"uint256"},{"internalType":"uint256","name":"totalFeesEarnedWei","type":"uint256"},{"internalType":"uint256","name":"sumApyBps","type":"uint256"},{"internalType":"uint256","name":"lastDealAt","type":"uint256"}],"stateMutability":"view","type":"function"},{"inputs":[{"internalType":"address","name":"newOwner","type":"address"}],"name":"transferOwnership","outputs":[],"stateMutability":"nonpayable","type":"function"}],"evm":{"bytecode":{"linkReferences":{},"object":"608060405234801561001057600080fd5b50600080546001600160a01b0319163390811782558152600360205260409020805460ff19166001179055610d058061004a6000396000f3fe608060405234801561001057600080fd5b506004361061009e5760003560e01c8063b918161111610066578063b918161114610190578063c23f85d6146101c3578063d241a10d14610222578063d47875d014610243578063f2fde38b1461025657600080fd5b8063343d762b146100a35780635cfd57f2146100cc578063711bf9b2146100e15780638bcdcbf3146100f45780638da5cb5b14610165575b600080fd5b6100b66100b1366004610ae1565b610269565b6040516100c39190610afc565b60405180910390f35b6100df6100da366004610b8f565b610325565b005b6100df6100ef366004610bdc565b610654565b610138610102366004610ae1565b60016020819052600091825260409091208054918101546002820154600383015460048401546005909401549293919290919086565b604080519687526020870195909552938501929092526060840152608083015260a082015260c0016100c3565b600054610178906001600160a01b031681565b6040516001600160a01b0390911681526020016100c3565b6101b361019e366004610ae1565b60036020526000908152604090205460ff1681565b60405190151581526020016100c3565b6101d66101d1366004610ae1565b6106de565b6040516100c39190600060c082019050825182526020830151602083015260408301516040830152606083015160608301526080830151608083015260a083015160a083015292915050565b610235610230366004610ae1565b610778565b6040519081526020016100c3565b610235610251366004610ae1565b6107fc565b6100df610264366004610ae1565b610994565b6001600160a01b0381166000908152600260209081526040808320805482518185028101850190935280835260609492939192909184015b8282101561031a5760008481526020908190206040805160c0810182526005860290920180546001600160a01b0381168452600160a01b900460ff161515838501526001808201549284019290925260028101546060840152600381015460808401526004015460a083015290835290920191016102a1565b505050509050919050565b3360009081526003602052604090205460ff1615801561035057506000546001600160a01b03163314155b1561036e5760405163ea8e4eb560e01b815260040160405180910390fd5b6001600160a01b038516600090815260016020526040812080549091829061039583610c25565b9091555050426005820155841561040d576001810180549060006103b883610c25565b9190505550828160020160008282546103d19190610c3e565b92505081905550818160030160008282546103ec9190610c3e565b92505081905550838160040160008282546104079190610c3e565b90915550505b6001600160a01b038616600090815260026020526040902080546032116105585760005b815461043f90600190610c57565b8110156105085781610452826001610c3e565b8154811061046257610462610c6a565b906000526020600020906005020182828154811061048257610482610c6a565b60009182526020909120825460059092020180546001600160a01b039092166001600160a01b031983168117825583546001600160a81b031990931617600160a01b9283900460ff161515909202919091178155600180830154818301556002808401549083015560038084015490830155600492830154929091019190915501610431565b508080548061051957610519610c80565b60008281526020812060056000199093019283020180546001600160a81b03191681556001810182905560028101829055600381018290556004015590555b6040805160c0810182526001600160a01b03808a1680835289151560208085019182528486018b8152606086018b8152608087018b81524260a089019081528a5460018181018d5560008d81529690962099516005909102909901805496511515600160a01b026001600160a81b03199097169990981698909817949094178655905191850191909155516002840155516003830155915160049091015590517f91a29e8e33d4b3148999ec5bc48596581e59a4c122c28bde4b969f03b4d8dc8b90610643908990899089908990931515845260208401929092526040830152606082015260800190565b60405180910390a250505050505050565b6000546001600160a01b0316331461067f576040516330cd747160e01b815260040160405180910390fd5b6001600160a01b038216600081815260036020908152604091829020805460ff191685151590811790915591519182527f5056a36abc1db1625034fdf114a164a0345b3ccf992fc1d51055e017375f4732910160405180910390a25050565b6107176040518060c001604052806000815260200160008152602001600081526020016000815260200160008152602001600081525090565b506001600160a01b0316600090815260016020818152604092839020835160c081018552815481529281015491830191909152600281015492820192909252600382015460608201526004820154608082015260059091015460a082015290565b6001600160a01b0381166000908152600160208181526040808420815160c081018352815481529381015492840183905260028101549184019190915260038101546060840152600481015460808401526005015460a083015282036107e15750600092915050565b806020015181608001516107f59190610c96565b9392505050565b6001600160a01b0381166000908152600160208181526040808420815160c0810183528154808252948201549381019390935260028101549183019190915260038101546060830152600481015460808301526005015460a08201529082036108685750600092915050565b805160208201516000919061087e906064610cb8565b6108889190610c96565b90506000601483600001511161089f5782516108a2565b60145b9050600060146108b3836064610cb8565b6108bd9190610c96565b90506000808560200151116108d35760006108e7565b846020015185608001516108e79190610c96565b905060006108f6606483610c96565b905060006014821161091e57601461090f836064610cb8565b6109199190610c96565b610921565b60645b9050600061092e8a6109e1565b9050606461093d82600a610cb8565b61094884600f610cb8565b610953886019610cb8565b61095e8b6032610cb8565b6109689190610c3e565b6109729190610c3e565b61097c9190610c3e565b6109869190610c96565b9a9950505050505050505050565b6000546001600160a01b031633146109bf576040516330cd747160e01b815260040160405180910390fd5b600080546001600160a01b0319166001600160a01b0392909216919091179055565b6001600160a01b038116600090815260026020526040812080548203610a0a5750600092915050565b8054600090600a10610a1d576000610a2b565b8154610a2b90600a90610c57565b9050600080828480549050610a409190610c57565b9050825b8454811015610a9557848181548110610a5f57610a5f610c6a565b6000918252602090912060059091020154600160a01b900460ff1615610a8d5782610a8981610c25565b9350505b600101610a44565b5060008111610aa5576000610abb565b80610ab1836064610cb8565b610abb9190610c96565b9695505050505050565b80356001600160a01b0381168114610adc57600080fd5b919050565b600060208284031215610af357600080fd5b6107f582610ac5565b602080825282518282018190526000919060409081850190868401855b82811015610b7257815180516001600160a01b03168552868101511515878601528581015186860152606080820151908601526080808201519086015260a0908101519085015260c09093019290850190600101610b19565b5091979650505050505050565b80358015158114610adc57600080fd5b600080600080600060a08688031215610ba757600080fd5b610bb086610ac5565b9450610bbe60208701610b7f565b94979496505050506040830135926060810135926080909101359150565b60008060408385031215610bef57600080fd5b610bf883610ac5565b9150610c0660208401610b7f565b90509250929050565b634e487b7160e01b600052601160045260246000fd5b600060018201610c3757610c37610c0f565b5060010190565b80820180821115610c5157610c51610c0f565b92915050565b81810381811115610c5157610c51610c0f565b634e487b7160e01b600052603260045260246000fd5b634e487b7160e01b600052603160045260246000fd5b600082610cb357634e487b7160e01b600052601260045260246000fd5b500490565b8082028115828204841417610c5157610c51610c0f56fea26469706673582212203ba109b674e5477aee2f1f644c3184232a8d93cecb1ad2bce7b94a89005dd12e64736f6c63430008180033","opcodes":"PUSH1 0x80 PUSH1 0x40 MSTORE CALLVALUE DUP1 ISZERO PUSH2 0x10 JUMPI PUSH1 0x0 DUP1 REVERT JUMPDEST POP PUSH1 0x0 DUP1 SLOAD PUSH1 0x1 PUSH1 0x1 PUSH1 0xA0 SHL SUB NOT AND CALLER SWAP1 DUP2 OR DUP3 SSTORE DUP2 MSTORE PUSH1 0x3 PUSH1 0x20 MSTORE PUSH1 0x40 SWAP1 KECCAK256 DUP1 SLOAD PUSH1 0xFF NOT AND PUSH1 0x1 OR SWAP1 SSTORE PUSH2 0xD05 DUP1 PUSH2 0x4A PUSH1 0x0 CODECOPY PUSH1 0x0 RETURN INVALID PUSH1 0x80 PUSH1 0x40 MSTORE CALLVALUE DUP1 ISZERO PUSH2 0x10 JUMPI PUSH1 0x0 DUP1 REVERT JUMPDEST POP PUSH1 0x4 CALLDATASIZE LT PUSH2 0x9E JUMPI PUSH1 0x0 CALLDATALOAD PUSH1 0xE0 SHR DUP1 PUSH4 0xB9181611 GT PUSH2 0x66 JUMPI DUP1 PUSH4 0xB9181611 EQ PUSH2 0x190 JUMPI DUP1 PUSH4 0xC23F85D6 EQ PUSH2 0x1C3 JUMPI DUP1 PUSH4 0xD241A10D EQ PUSH2 0x222 JUMPI DUP1 PUSH4 0xD47875D0 EQ PUSH2 0x243 JUMPI DUP1 PUSH4 0xF2FDE38B EQ PUSH2 0x256 JUMPI PUSH1 0x0 DUP1 REVERT JUMPDEST DUP1 PUSH4 0x343D762B EQ PUSH2 0xA3 JUMPI DUP1 PUSH4 0x5CFD57F2 EQ PUSH2 0xCC JUMPI DUP1 PUSH4 0x711BF9B2 EQ PUSH2 0xE1 JUMPI DUP1 PUSH4 0x8BCDCBF3 EQ PUSH2 0xF4 JUMPI DUP1 PUSH4 0x8DA5CB5B EQ PUSH2 0x165 JUMPI JUMPDEST PUSH1 0x0 DUP1 REVERT JUMPDEST PUSH2 0xB6 PUSH2 0xB1 CALLDATASIZE PUSH1 0x4 PUSH2 0xAE1 JUMP JUMPDEST PUSH2 0x269 JUMP JUMPDEST PUSH1 0x40 MLOAD PUSH2 0xC3 SWAP2 SWAP1 PUSH2 0xAFC JUMP JUMPDEST PUSH1 0x40 MLOAD DUP1 SWAP2 SUB SWAP1 RETURN JUMPDEST PUSH2 0xDF PUSH2 0xDA CALLDATASIZE PUSH1 0x4 PUSH2 0xB8F JUMP JUMPDEST PUSH2 0x325 JUMP JUMPDEST STOP JUMPDEST PUSH2 0xDF PUSH2 0xEF CALLDATASIZE PUSH1 0x4 PUSH2 0xBDC JUMP JUMPDEST PUSH2 0x654 JUMP JUMPDEST PUSH2 0x138 PUSH2 0x102 CALLDATASIZE PUSH1 0x4 PUSH2 0xAE1 JUMP JUMPDEST PUSH1 0x1 PUSH1 0x20 DUP2 SWAP1 MSTORE PUSH1 0x0 SWAP2 DUP3 MSTORE PUSH1 0x40 SWAP1 SWAP2 KECCAK256 DUP1 SLOAD SWAP2 DUP2 ADD SLOAD PUSH1 0x2 DUP3 ADD SLOAD PUSH1 0x3 DUP4 ADD SLOAD PUSH1 0x4 DUP5 ADD SLOAD PUSH1 0x5 SWAP1 SWAP5 ADD SLOAD SWAP3 SWAP4 SWAP2 SWAP3 SWAP1 SWAP2 SWAP1 DUP7 JUMP JUMPDEST PUSH1 0x40 DUP1 MLOAD SWAP7 DUP8 MSTORE PUSH1 0x20 DUP8 ADD SWAP6 SWAP1 SWAP6 MSTORE SWAP4 DUP6 ADD SWAP3 SWAP1 SWAP3 MSTORE PUSH1 0x60 DUP5 ADD MSTORE PUSH1 0x80 DUP4 ADD MSTORE PUSH1 0xA0 DUP3 ADD MSTORE PUSH1 0xC0 ADD PUSH2 0xC3 JUMP JUMPDEST PUSH1 0x0 SLOAD PUSH2 0x178 SWAP1 PUSH1 0x1 PUSH1 0x1 PUSH1 0xA0 SHL SUB AND DUP2 JUMP JUMPDEST PUSH1 0x40 MLOAD PUSH1 0x1 PUSH1 0x1 PUSH1 0xA0 SHL SUB SWAP1 SWAP2 AND DUP2 MSTORE PUSH1 0x20 ADD PUSH2 0xC3 JUMP JUMPDEST PUSH2 0x1B3 PUSH2 0x19E CALLDATASIZE PUSH1 0x4 PUSH2 0xAE1 JUMP JUMPDEST PUSH1 0x3 PUSH1 0x20 MSTORE PUSH1 0x0 SWAP1 DUP2 MSTORE PUSH1 0x40 SWAP1 KECCAK256 SLOAD PUSH1 0xFF AND DUP2 JUMP JUMPDEST PUSH1 0x40 MLOAD SWAP1 ISZERO ISZERO DUP2 MSTORE PUSH1 0x20 ADD PUSH2 0xC3 JUMP JUMPDEST PUSH2 0x1D6 PUSH2 0x1D1 CALLDATASIZE PUSH1 0x4 PUSH2 0xAE1 JUMP JUMPDEST PUSH2 0x6DE JUMP JUMPDEST PUSH1 0x40 MLOAD PUSH2 0xC3 SWAP2 SWAP1 PUSH1 0x0 PUSH1 0xC0 DUP3 ADD SWAP1 POP DUP3 MLOAD DUP3 MSTORE PUSH1 0x20 DUP4 ADD MLOAD PUSH1 0x20 DUP4 ADD MSTORE PUSH1 0x40 DUP4 ADD MLOAD PUSH1 0x40 DUP4 ADD MSTORE PUSH1 0x60 DUP4 ADD MLOAD PUSH1 0x60 DUP4 ADD MSTORE PUSH1 0x80 DUP4 ADD MLOAD PUSH1 0x80 DUP4 ADD MSTORE PUSH1 0xA0 DUP4 ADD MLOAD PUSH1 0xA0 DUP4 ADD MSTORE SWAP3 SWAP2 POP POP JUMP JUMPDEST PUSH2 0x235 PUSH2 0x230 CALLDATASIZE PUSH1 0x4 PUSH2 0xAE1 JUMP JUMPDEST PUSH2 0x778 JUMP JUMPDEST PUSH1 0x40 MLOAD SWAP1 DUP2 MSTORE PUSH1 0x20 ADD PUSH2 0xC3 JUMP JUMPDEST PUSH2 0x235 PUSH2 0x251 CALLDATASIZE PUSH1 0x4 PUSH2 0xAE1 JUMP JUMPDEST PUSH2 0x7FC JUMP JUMPDEST PUSH2 0xDF PUSH2 0x264 CALLDATASIZE PUSH1 0x4 PUSH2 0xAE1 JUMP JUMPDEST PUSH2 0x994 JUMP JUMPDEST PUSH1 0x1 PUSH1 0x1 PUSH1 0xA0 SHL SUB DUP2 AND PUSH1 0x0 SWAP1 DUP2 MSTORE PUSH1 0x2 PUSH1 0x20 SWAP1 DUP2 MSTORE PUSH1 0x40 DUP1 DUP4 KECCAK256 DUP1 SLOAD DUP3 MLOAD DUP2 DUP6 MUL DUP2 ADD DUP6 ADD SWAP1 SWAP4 MSTORE DUP1 DUP4 MSTORE PUSH1 0x60 SWAP5 SWAP3 SWAP4 SWAP2 SWAP3 SWAP1 SWAP2 DUP5 ADD JUMPDEST DUP3 DUP3 LT ISZERO PUSH2 0x31A JUMPI PUSH1 0x0 DUP5 DUP2 MSTORE PUSH1 0x20 SWAP1 DUP2 SWAP1 KECCAK256 PUSH1 0x40 DUP1 MLOAD PUSH1 0xC0 DUP2 ADD DUP3 MSTORE PUSH1 0x5 DUP7 MUL SWAP1 SWAP3 ADD DUP1 SLOAD PUSH1 0x1 PUSH1 0x1 PUSH1 0xA0 SHL SUB DUP2 AND DUP5 MSTORE PUSH1 0x1 PUSH1 0xA0 SHL SWAP1 DIV PUSH1 0xFF AND ISZERO ISZERO DUP4 DUP6 ADD MSTORE PUSH1 0x1 DUP1 DUP3 ADD SLOAD SWAP3 DUP5 ADD SWAP3 SWAP1 SWAP3 MSTORE PUSH1 0x2 DUP2 ADD SLOAD PUSH1 0x60 DUP5 ADD MSTORE PUSH1 0x3 DUP2 ADD SLOAD PUSH1 0x80 DUP5 ADD MSTORE PUSH1 0x4 ADD SLOAD PUSH1 0xA0 DUP4 ADD MSTORE SWAP1 DUP4 MSTORE SWAP1 SWAP3 ADD SWAP2 ADD PUSH2 0x2A1 JUMP JUMPDEST POP POP POP POP SWAP1 POP SWAP2 SWAP1 POP JUMP JUMPDEST CALLER PUSH1 0x0 SWAP1 DUP2 MSTORE PUSH1 0x3 PUSH1 0x20 MSTORE PUSH1 0x40 SWAP1 KECCAK256 SLOAD PUSH1 0xFF AND ISZERO DUP1 ISZERO PUSH2 0x350 JUMPI POP PUSH1 0x0 SLOAD PUSH1 0x1 PUSH1 0x1 PUSH1 0xA0 SHL SUB AND CALLER EQ ISZERO JUMPDEST ISZERO PUSH2 0x36E JUMPI PUSH1 0x40 MLOAD PUSH4 0xEA8E4EB5 PUSH1 0xE0 SHL DUP2 MSTORE PUSH1 0x4 ADD PUSH1 0x40 MLOAD DUP1 SWAP2 SUB SWAP1 REVERT JUMPDEST PUSH1 0x1 PUSH1 0x1 PUSH1 0xA0 SHL SUB DUP6 AND PUSH1 0x0 SWAP1 DUP2 MSTORE PUSH1 0x1 PUSH1 0x20 MSTORE PUSH1 0x40 DUP2 KECCAK256 DUP1 SLOAD SWAP1 SWAP2 DUP3 SWAP1 PUSH2 0x395 DUP4 PUSH2 0xC25 JUMP JUMPDEST SWAP1 SWAP2 SSTORE POP POP TIMESTAMP PUSH1 0x5 DUP3 ADD SSTORE DUP5 ISZERO PUSH2 0x40D JUMPI PUSH1 0x1 DUP2 ADD DUP1 SLOAD SWAP1 PUSH1 0x0 PUSH2 0x3B8 DUP4 PUSH2 0xC25 JUMP JUMPDEST SWAP2 SWAP1 POP SSTORE POP DUP3 DUP2 PUSH1 0x2 ADD PUSH1 0x0 DUP3 DUP3 SLOAD PUSH2 0x3D1 SWAP2 SWAP1 PUSH2 0xC3E JUMP JUMPDEST SWAP3 POP POP DUP2 SWAP1 SSTORE POP DUP2 DUP2 PUSH1 0x3 ADD PUSH1 0x0 DUP3 DUP3 SLOAD PUSH2 0x3EC SWAP2 SWAP1 PUSH2 0xC3E JUMP JUMPDEST SWAP3 POP POP DUP2 SWAP1 SSTORE POP DUP4 DUP2 PUSH1 0x4 ADD PUSH1 0x0 DUP3 DUP3 SLOAD PUSH2 0x407 SWAP2 SWAP1 PUSH2 0xC3E JUMP JUMPDEST SWAP1 SWAP2 SSTORE POP POP JUMPDEST PUSH1 0x1 PUSH1 0x1 PUSH1 0xA0 SHL SUB DUP7 AND PUSH1 0x0 SWAP1 DUP2 MSTORE PUSH1 0x2 PUSH1 0x20 MSTORE PUSH1 0x40 SWAP1 KECCAK256 DUP1 SLOAD PUSH1 0x32 GT PUSH2 0x558 JUMPI PUSH1 0x0 JUMPDEST DUP2 SLOAD PUSH2 0x43F SWAP1 PUSH1 0x1 SWAP1 PUSH2 0xC57 JUMP JUMPDEST DUP2 LT ISZERO PUSH2 0x508 JUMPI DUP2 PUSH2 0x452 DUP3 PUSH1 0x1 PUSH2 0xC3E JUMP JUMPDEST DUP2 SLOAD DUP2 LT PUSH2 0x462 JUMPI PUSH2 0x462 PUSH2 0xC6A JUMP JUMPDEST SWAP1 PUSH1 0x0 MSTORE PUSH1 0x20 PUSH1 0x0 KECCAK256 SWAP1 PUSH1 0x5 MUL ADD DUP3 DUP3 DUP2 SLOAD DUP2 LT PUSH2 0x482 JUMPI PUSH2 0x482 PUSH2 0xC6A JUMP JUMPDEST PUSH1 0x0 SWAP2 DUP3 MSTORE PUSH1 0x20 SWAP1 SWAP2 KECCAK256 DUP3 SLOAD PUSH1 0x5 SWAP1 SWAP3 MUL ADD DUP1 SLOAD PUSH1 0x1 PUSH1 0x1 PUSH1 0xA0 SHL SUB SWAP1 SWAP3 AND PUSH1 0x1 PUSH1 0x1 PUSH1 0xA0 SHL SUB NOT DUP4 AND DUP2 OR DUP3 SSTORE DUP4 SLOAD PUSH1 0x1 PUSH1 0x1 PUSH1 0xA8 SHL SUB NOT SWAP1 SWAP4 AND OR PUSH1 0x1 PUSH1 0xA0 SHL SWAP3 DUP4 SWAP1 DIV PUSH1 0xFF AND ISZERO ISZERO SWAP1 SWAP3 MUL SWAP2 SWAP1 SWAP2 OR DUP2 SSTORE PUSH1 0x1 DUP1 DUP4 ADD SLOAD DUP2 DUP4 ADD SSTORE PUSH1 0x2 DUP1 DUP5 ADD SLOAD SWAP1 DUP4 ADD SSTORE PUSH1 0x3 DUP1 DUP5 ADD SLOAD SWAP1 DUP4 ADD SSTORE PUSH1 0x4 SWAP3 DUP4 ADD SLOAD SWAP3 SWAP1 SWAP2 ADD SWAP2 SWAP1 SWAP2 SSTORE ADD PUSH2 0x431 JUMP JUMPDEST POP DUP1 DUP1 SLOAD DUP1 PUSH2 0x519 JUMPI PUSH2 0x519 PUSH2 0xC80 JUMP JUMPDEST PUSH1 0x0 DUP3 DUP2 MSTORE PUSH1 0x20 DUP2 KECCAK256 PUSH1 0x5 PUSH1 0x0 NOT SWAP1 SWAP4 ADD SWAP3 DUP4 MUL ADD DUP1 SLOAD PUSH1 0x1 PUSH1 0x1 PUSH1 0xA8 SHL SUB NOT AND DUP2 SSTORE PUSH1 0x1 DUP2 ADD DUP3 SWAP1 SSTORE PUSH1 0x2 DUP2 ADD DUP3 SWAP1 SSTORE PUSH1 0x3 DUP2 ADD DUP3 SWAP1 SSTORE PUSH1 0x4 ADD SSTORE SWAP1 SSTORE JUMPDEST PUSH1 0x40 DUP1 MLOAD PUSH1 0xC0 DUP2 ADD DUP3 MSTORE PUSH1 0x1 PUSH1 0x1 PUSH1 0xA0 SHL SUB DUP1 DUP11 AND DUP1 DUP4 MSTORE DUP10 ISZERO ISZERO PUSH1 0x20 DUP1 DUP6 ADD SWAP2 DUP3 MSTORE DUP5 DUP7 ADD DUP12 DUP2 MSTORE PUSH1 0x60 DUP7 ADD DUP12 DUP2 MSTORE PUSH1 0x80 DUP8 ADD DUP12 DUP2 MSTORE TIMESTAMP PUSH1 0xA0 DUP10 ADD SWAP1 DUP2 MSTORE DUP11 SLOAD PUSH1 0x1 DUP2 DUP2 ADD DUP14 SSTORE PUSH1 0x0 DUP14 DUP2 MSTORE SWAP7 SWAP1 SWAP7 KECCAK256 SWAP10 MLOAD PUSH1 0x5 SWAP1 SWAP2 MUL SWAP1 SWAP10 ADD DUP1 SLOAD SWAP7 MLOAD ISZERO ISZERO PUSH1 0x1 PUSH1 0xA0 SHL MUL PUSH1 0x1 PUSH1 0x1 PUSH1 0xA8 SHL SUB NOT SWAP1 SWAP8 AND SWAP10 SWAP1 SWAP9 AND SWAP9 SWAP1 SWAP9 OR SWAP5 SWAP1 SWAP5 OR DUP7 SSTORE SWAP1 MLOAD SWAP2 DUP6 ADD SWAP2 SWAP1 SWAP2 SSTORE MLOAD PUSH1 0x2 DUP5 ADD SSTORE MLOAD PUSH1 0x3 DUP4 ADD SSTORE SWAP2 MLOAD PUSH1 0x4 SWAP1 SWAP2 ADD SSTORE SWAP1 MLOAD PUSH32 0x91A29E8E33D4B3148999EC5BC48596581E59A4C122C28BDE4B969F03B4D8DC8B SWAP1 PUSH2 0x643 SWAP1 DUP10 SWAP1 DUP10 SWAP1 DUP10 SWAP1 DUP10 SWAP1 SWAP4 ISZERO ISZERO DUP5 MSTORE PUSH1 0x20 DUP5 ADD SWAP3 SWAP1 SWAP3 MSTORE PUSH1 0x40 DUP4 ADD MSTORE PUSH1 0x60 DUP3 ADD MSTORE PUSH1 0x80 ADD SWAP1 JUMP JUMPDEST PUSH1 0x40 MLOAD DUP1 SWAP2 SUB SWAP1 LOG2 POP POP POP POP POP POP POP JUMP JUMPDEST PUSH1 0x0 SLOAD PUSH1 0x1 PUSH1 0x1 PUSH1 0xA0 SHL SUB AND CALLER EQ PUSH2 0x67F JUMPI PUSH1 0x40 MLOAD PUSH4 0x30CD7471 PUSH1 0xE0 SHL DUP2 MSTORE PUSH1 0x4 ADD PUSH1 0x40 MLOAD DUP1 SWAP2 SUB SWAP1 REVERT JUMPDEST PUSH1 0x1 PUSH1 0x1 PUSH1 0xA0 SHL SUB DUP3 AND PUSH1 0x0 DUP2 DUP2 MSTORE PUSH1 0x3 PUSH1 0x20 SWAP1 DUP2 MSTORE PUSH1 0x40 SWAP2 DUP3 SWAP1 KECCAK256 DUP1 SLOAD PUSH1 0xFF NOT AND DUP6 ISZERO ISZERO SWAP1 DUP2 OR SWAP1 SWAP2 SSTORE SWAP2 MLOAD SWAP2 DUP3 MSTORE PUSH32 0x5056A36ABC1DB1625034FDF114A164A0345B3CCF992FC1D51055E017375F4732 SWAP2 ADD PUSH1 0x40 MLOAD DUP1 SWAP2 SUB SWAP1 LOG2 POP POP JUMP JUMPDEST PUSH2 0x717 PUSH1 0x40 MLOAD DUP1 PUSH1 0xC0 ADD PUSH1 0x40 MSTORE DUP1 PUSH1 0x0 DUP2 MSTORE PUSH1 0x20 ADD PUSH1 0x0 DUP2 MSTORE PUSH1 0x20 ADD PUSH1 0x0 DUP2 MSTORE PUSH1 0x20 ADD PUSH1 0x0 DUP2 MSTORE PUSH1 0x20 ADD PUSH1 0x0 DUP2 MSTORE PUSH1 0x20 ADD PUSH1 0x0 DUP2 MSTORE POP SWAP1 JUMP JUMPDEST POP PUSH1 0x1 PUSH1 0x1 PUSH1 0xA0 SHL SUB AND PUSH1 0x0 SWAP1 DUP2 MSTORE PUSH1 0x1 PUSH1 0x20 DUP2 DUP2 MSTORE PUSH1 0x40 SWAP3 DUP4 SWAP1 KECCAK256 DUP4 MLOAD PUSH1 0xC0 DUP2 ADD DUP6 MSTORE DUP2 SLOAD DUP2 MSTORE SWAP3 DUP2 ADD SLOAD SWAP2 DUP4 ADD SWAP2 SWAP1 SWAP2 MSTORE PUSH1 0x2 DUP2 ADD SLOAD SWAP3 DUP3 ADD SWAP3 SWAP1 SWAP3 MSTORE PUSH1 0x3 DUP3 ADD SLOAD PUSH1 0x60 DUP3 ADD MSTORE PUSH1 0x4 DUP3 ADD SLOAD PUSH1 0x80 DUP3 ADD MSTORE PUSH1 0x5 SWAP1 SWAP2 ADD SLOAD PUSH1 0xA0 DUP3 ADD MSTORE SWAP1 JUMP JUMPDEST PUSH1 0x1 PUSH1 0x1 PUSH1 0xA0 SHL SUB DUP2 AND PUSH1 0x0 SWAP1 DUP2 MSTORE PUSH1 0x1 PUSH1 0x20 DUP2 DUP2 MSTORE PUSH1 0x40 DUP1 DUP5 KECCAK256 DUP2 MLOAD PUSH1 0xC0 DUP2 ADD DUP4 MSTORE DUP2 SLOAD DUP2 MSTORE SWAP4 DUP2 ADD SLOAD SWAP3 DUP5 ADD DUP4 SWAP1 MSTORE PUSH1 0x2 DUP2 ADD SLOAD SWAP2 DUP5 ADD SWAP2 SWAP1 SWAP2 MSTORE PUSH1 0x3 DUP2 ADD SLOAD PUSH1 0x60 DUP5 ADD MSTORE PUSH1 0x4 DUP2 ADD SLOAD PUSH1 0x80 DUP5 ADD MSTORE PUSH1 0x5 ADD SLOAD PUSH1 0xA0 DUP4 ADD MSTORE DUP3 SUB PUSH2 0x7E1 JUMPI POP PUSH1 0x0 SWAP3 SWAP2 POP POP JUMP JUMPDEST DUP1 PUSH1 0x20 ADD MLOAD DUP2 PUSH1 0x80 ADD MLOAD PUSH2 0x7F5 SWAP2 SWAP1 PUSH2 0xC96 JUMP JUMPDEST SWAP4 SWAP3 POP POP POP JUMP JUMPDEST PUSH1 0x1 PUSH1 0x1 PUSH1 0xA0 SHL SUB DUP2 AND PUSH1 0x0 SWAP1 DUP2 MSTORE PUSH1 0x1 PUSH1 0x20 DUP2 DUP2 MSTORE PUSH1 0x40 DUP1 DUP5 KECCAK256 DUP2 MLOAD PUSH1 0xC0 DUP2 ADD DUP4 MSTORE DUP2 SLOAD DUP1 DUP3 MSTORE SWAP5 DUP3 ADD SLOAD SWAP4 DUP2 ADD SWAP4 SWAP1 SWAP4 MSTORE PUSH1 0x2 DUP2 ADD SLOAD SWAP2 DUP4 ADD SWAP2 SWAP1 SWAP2 MSTORE PUSH1 0x3 DUP2 ADD SLOAD PUSH1 0x60 DUP4 ADD MSTORE PUSH1 0x4 DUP2 ADD SLOAD PUSH1 0x80 DUP4 ADD MSTORE PUSH1 0x5 ADD SLOAD PUSH1 0xA0 DUP3 ADD MSTORE SWAP1 DUP3 SUB PUSH2 0x868 JUMPI POP PUSH1 0x0 SWAP3 SWAP2 POP POP JUMP JUMPDEST DUP1 MLOAD PUSH1 0x20 DUP3 ADD MLOAD PUSH1 0x0 SWAP2 SWAP1 PUSH2 0x87E SWAP1 PUSH1 0x64 PUSH2 0xCB8 JUMP JUMPDEST PUSH2 0x888 SWAP2 SWAP1 PUSH2 0xC96 JUMP JUMPDEST SWAP1 POP PUSH1 0x0 PUSH1 0x14 DUP4 PUSH1 0x0 ADD MLOAD GT PUSH2 0x89F JUMPI DUP3 MLOAD PUSH2 0x8A2 JUMP JUMPDEST PUSH1 0x14 JUMPDEST SWAP1 POP PUSH1 0x0 PUSH1 0x14 PUSH2 0x8B3 DUP4 PUSH1 0x64 PUSH2 0xCB8 JUMP JUMPDEST PUSH2 0x8BD SWAP2 SWAP1 PUSH2 0xC96 JUMP JUMPDEST SWAP1 POP PUSH1 0x0 DUP1 DUP6 PUSH1 0x20 ADD MLOAD GT PUSH2 0x8D3 JUMPI PUSH1 0x0 PUSH2 0x8E7 JUMP JUMPDEST DUP5 PUSH1 0x20 ADD MLOAD DUP6 PUSH1 0x80 ADD MLOAD PUSH2 0x8E7 SWAP2 SWAP1 PUSH2 0xC96 JUMP JUMPDEST SWAP1 POP PUSH1 0x0 PUSH2 0x8F6 PUSH1 0x64 DUP4 PUSH2 0xC96 JUMP JUMPDEST SWAP1 POP PUSH1 0x0 PUSH1 0x14 DUP3 GT PUSH2 0x91E JUMPI PUSH1 0x14 PUSH2 0x90F DUP4 PUSH1 0x64 PUSH2 0xCB8 JUMP JUMPDEST PUSH2 0x919 SWAP2 SWAP1 PUSH2 0xC96 JUMP JUMPDEST PUSH2 0x921 JUMP JUMPDEST PUSH1 0x64 JUMPDEST SWAP1 POP PUSH1 0x0 PUSH2 0x92E DUP11 PUSH2 0x9E1 JUMP JUMPDEST SWAP1 POP PUSH1 0x64 PUSH2 0x93D DUP3 PUSH1 0xA PUSH2 0xCB8 JUMP JUMPDEST PUSH2 0x948 DUP5 PUSH1 0xF PUSH2 0xCB8 JUMP JUMPDEST PUSH2 0x953 DUP9 PUSH1 0x19 PUSH2 0xCB8 JUMP JUMPDEST PUSH2 0x95E DUP12 PUSH1 0x32 PUSH2 0xCB8 JUMP JUMPDEST PUSH2 0x968 SWAP2 SWAP1 PUSH2 0xC3E JUMP JUMPDEST PUSH2 0x972 SWAP2 SWAP1 PUSH2 0xC3E JUMP JUMPDEST PUSH2 0x97C SWAP2 SWAP1 PUSH2 0xC3E JUMP JUMPDEST PUSH2 0x986 SWAP2 SWAP1 PUSH2 0xC96 JUMP JUMPDEST SWAP11 SWAP10 POP POP POP POP POP POP POP POP POP POP JUMP JUMPDEST PUSH1 0x0 SLOAD PUSH1 0x1 PUSH1 0x1 PUSH1 0xA0 SHL SUB AND CALLER EQ PUSH2 0x9BF JUMPI PUSH1 0x40 MLOAD PUSH4 0x30CD7471 PUSH1 0xE0 SHL DUP2 MSTORE PUSH1 0x4 ADD PUSH1 0x40 MLOAD DUP1 SWAP2 SUB SWAP1 REVERT JUMPDEST PUSH1 0x0 DUP1 SLOAD PUSH1 0x1 PUSH1 0x1 PUSH1 0xA0 SHL SUB NOT AND PUSH1 0x1 PUSH1 0x1 PUSH1 0xA0 SHL SUB SWAP3 SWAP1 SWAP3 AND SWAP2 SWAP1 SWAP2 OR SWAP1 SSTORE JUMP JUMPDEST PUSH1 0x1 PUSH1 0x1 PUSH1 0xA0 SHL SUB DUP2 AND PUSH1 0x0 SWAP1 DUP2 MSTORE PUSH1 0x2 PUSH1 0x20 MSTORE PUSH1 0x40 DUP2 KECCAK256 DUP1 SLOAD DUP3 SUB PUSH2 0xA0A JUMPI POP PUSH1 0x0 SWAP3 SWAP2 POP POP JUMP JUMPDEST DUP1 SLOAD PUSH1 0x0 SWAP1 PUSH1 0xA LT PUSH2 0xA1D JUMPI PUSH1 0x0 PUSH2 0xA2B JUMP JUMPDEST DUP2 SLOAD PUSH2 0xA2B SWAP1 PUSH1 0xA SWAP1 PUSH2 0xC57 JUMP JUMPDEST SWAP1 POP PUSH1 0x0 DUP1 DUP3 DUP5 DUP1 SLOAD SWAP1 POP PUSH2 0xA40 SWAP2 SWAP1 PUSH2 0xC57 JUMP JUMPDEST SWAP1 POP DUP3 JUMPDEST DUP5 SLOAD DUP2 LT ISZERO PUSH2 0xA95 JUMPI DUP5 DUP2 DUP2 SLOAD DUP2 LT PUSH2 0xA5F JUMPI PUSH2 0xA5F PUSH2 0xC6A JUMP JUMPDEST PUSH1 0x0 SWAP2 DUP3 MSTORE PUSH1 0x20 SWAP1 SWAP2 KECCAK256 PUSH1 0x5 SWAP1 SWAP2 MUL ADD SLOAD PUSH1 0x1 PUSH1 0xA0 SHL SWAP1 DIV PUSH1 0xFF AND ISZERO PUSH2 0xA8D JUMPI DUP3 PUSH2 0xA89 DUP2 PUSH2 0xC25 JUMP JUMPDEST SWAP4 POP POP JUMPDEST PUSH1 0x1 ADD PUSH2 0xA44 JUMP JUMPDEST POP PUSH1 0x0 DUP2 GT PUSH2 0xAA5 JUMPI PUSH1 0x0 PUSH2 0xABB JUMP JUMPDEST DUP1 PUSH2 0xAB1 DUP4 PUSH1 0x64 PUSH2 0xCB8 JUMP JUMPDEST PUSH2 0xABB SWAP2 SWAP1 PUSH2 0xC96 JUMP JUMPDEST SWAP7 SWAP6 POP POP POP POP POP POP JUMP JUMPDEST DUP1 CALLDATALOAD PUSH1 0x1 PUSH1 0x1 PUSH1 0xA0 SHL SUB DUP2 AND DUP2 EQ PUSH2 0xADC JUMPI PUSH1 0x0 DUP1 REVERT JUMPDEST SWAP2 SWAP1 POP JUMP JUMPDEST PUSH1 0x0 PUSH1 0x20 DUP3 DUP5 SUB SLT ISZERO PUSH2 0xAF3 JUMPI PUSH1 0x0 DUP1 REVERT JUMPDEST PUSH2 0x7F5 DUP3 PUSH2 0xAC5 JUMP JUMPDEST PUSH1 0x20 DUP1 DUP3 MSTORE DUP3 MLOAD DUP3 DUP3 ADD DUP2 SWAP1 MSTORE PUSH1 0x0 SWAP2 SWAP1 PUSH1 0x40 SWAP1 DUP2 DUP6 ADD SWAP1 DUP7 DUP5 ADD DUP6 JUMPDEST DUP3 DUP2 LT ISZERO PUSH2 0xB72 JUMPI DUP2 MLOAD DUP1 MLOAD PUSH1 0x1 PUSH1 0x1 PUSH1 0xA0 SHL SUB AND DUP6 MSTORE DUP7 DUP2 ADD MLOAD ISZERO ISZERO DUP8 DUP7 ADD MSTORE DUP6 DUP2 ADD MLOAD DUP7 DUP7 ADD MSTORE PUSH1 0x60 DUP1 DUP3 ADD MLOAD SWAP1 DUP7 ADD MSTORE PUSH1 0x80 DUP1 DUP3 ADD MLOAD SWAP1 DUP7 ADD MSTORE PUSH1 0xA0 SWAP1 DUP2 ADD MLOAD SWAP1 DUP6 ADD MSTORE PUSH1 0xC0 SWAP1 SWAP4 ADD SWAP3 SWAP1 DUP6 ADD SWAP1 PUSH1 0x1 ADD PUSH2 0xB19 JUMP JUMPDEST POP SWAP2 SWAP8 SWAP7 POP POP POP POP POP POP POP JUMP JUMPDEST DUP1 CALLDATALOAD DUP1 ISZERO ISZERO DUP2 EQ PUSH2 0xADC JUMPI PUSH1 0x0 DUP1 REVERT JUMPDEST PUSH1 0x0 DUP1 PUSH1 0x0 DUP1 PUSH1 0x0 PUSH1 0xA0 DUP7 DUP9 SUB SLT ISZERO PUSH2 0xBA7 JUMPI PUSH1 0x0 DUP1 REVERT JUMPDEST PUSH2 0xBB0 DUP7 PUSH2 0xAC5 JUMP JUMPDEST SWAP5 POP PUSH2 0xBBE PUSH1 0x20 DUP8 ADD PUSH2 0xB7F JUMP JUMPDEST SWAP5 SWAP8 SWAP5 SWAP7 POP POP POP POP PUSH1 0x40 DUP4 ADD CALLDATALOAD SWAP3 PUSH1 0x60 DUP2 ADD CALLDATALOAD SWAP3 PUSH1 0x80 SWAP1 SWAP2 ADD CALLDATALOAD SWAP2 POP JUMP JUMPDEST PUSH1 0x0 DUP1 PUSH1 0x40 DUP4 DUP6 SUB SLT ISZERO PUSH2 0xBEF JUMPI PUSH1 0x0 DUP1 REVERT JUMPDEST PUSH2 0xBF8 DUP4 PUSH2 0xAC5 JUMP JUMPDEST SWAP2 POP PUSH2 0xC06 PUSH1 0x20 DUP5 ADD PUSH2 0xB7F JUMP JUMPDEST SWAP1 POP SWAP3 POP SWAP3 SWAP1 POP JUMP JUMPDEST PUSH4 0x4E487B71 PUSH1 0xE0 SHL PUSH1 0x0 MSTORE PUSH1 0x11 PUSH1 0x4 MSTORE PUSH1 0x24 PUSH1 0x0 REVERT JUMPDEST PUSH1 0x0 PUSH1 0x1 DUP3 ADD PUSH2 0xC37 JUMPI PUSH2 0xC37 PUSH2 0xC0F JUMP JUMPDEST POP PUSH1 0x1 ADD SWAP1 JUMP JUMPDEST DUP1 DUP3 ADD DUP1 DUP3 GT ISZERO PUSH2 0xC51 JUMPI PUSH2 0xC51 PUSH2 0xC0F JUMP JUMPDEST SWAP3 SWAP2 POP POP JUMP JUMPDEST DUP2 DUP2 SUB DUP2 DUP2 GT ISZERO PUSH2 0xC51 JUMPI PUSH2 0xC51 PUSH2 0xC0F JUMP JUMPDEST PUSH4 0x4E487B71 PUSH1 0xE0 SHL PUSH1 0x0 MSTORE PUSH1 0x32 PUSH1 0x4 MSTORE PUSH1 0x24 PUSH1 0x0 REVERT JUMPDEST PUSH4 0x4E487B71 PUSH1 0xE0 SHL PUSH1 0x0 MSTORE PUSH1 0x31 PUSH1 0x4 MSTORE PUSH1 0x24 PUSH1 0x0 REVERT JUMPDEST PUSH1 0x0 DUP3 PUSH2 0xCB3 JUMPI PUSH4 0x4E487B71 PUSH1 0xE0 SHL PUSH1 0x0 MSTORE PUSH1 0x12 PUSH1 0x4 MSTORE PUSH1 0x24 PUSH1 0x0 REVERT JUMPDEST POP DIV SWAP1 JUMP JUMPDEST DUP1 DUP3 MUL DUP2 ISZERO DUP3 DUP3 DIV DUP5 EQ OR PUSH2 0xC51 JUMPI PUSH2 0xC51 PUSH2 0xC0F JUMP INVALID LOG2 PUSH5 0x6970667358 0x22 SLT KECCAK256 EXTCODESIZE LOG1 MULMOD 0xB6 PUSH21 0xE5477AEE2F1F644C3184232A8D93CECB1AD2BCE7B9 BLOBBASEFEE DUP10 STOP TSTORE 0xD1 0x2E PUSH5 0x736F6C6343 STOP ADDMOD XOR STOP CALLER "},"methodIdentifiers":{"authorized(address)":"b9181611","getAvgApy(address)":"d241a10d","getDealHistory(address)":"343d762b","getScore(address)":"d47875d0","getStats(address)":"c23f85d6","owner()":"8da5cb5b","recordDeal(address,bool,uint256,uint256,uint256)":"5cfd57f2","setAuthorized(address,bool)":"711bf9b2","stats(address)":"8bcdcbf3","transferOwnership(address)":"f2fde38b"}}}}}