{"contracts/ReputationRegistry.sol":{"ReputationRegistry":{"abi":[{"inputs":[],"stateMutability":"nonpayable","type":"constructor"},{"inputs":[],"name":"NotAuthorized","type":"error"},{"inputs":[],"name":"NotOwner","type":"error"},{"anonymous":false,"inputs":[{"indexed":true,"internalType":"address","name":"addr","type":"address"},{"indexed":false,"internalType":"bool","name":"auth","type":"bool"}],"name":"AuthorizationSet","type":"event"},{"anonymous":false,"inputs":[{"indexed":true,"internalType":"bytes32","name":"alphaId","type":"bytes32"},{"indexed":false,"internalType":"bool","name":"accepted","type":"bool"},{"indexed":false,"internalType":"uint256","name":"apyBps","type":"uint256"},{"indexed":false,"internalType":"uint256","name":"investmentWei","type":"uint256"},{"indexed":false,"internalType":"uint256","name":"feeWei","type":"uint256"}],"name":"DealRecorded","type":"event"},{"inputs":[{"internalType":"address","name":"","type":"address"}],"name":"authorized","outputs":[{"internalType":"bool","name":"","type":"bool"}],"stateMutability":"view","type":"function"},{"inputs":[{"internalType":"bytes32","name":"alphaId","type":"bytes32"}],"name":"getAvgApy","outputs":[{"internalType":"uint256","name":"","type":"uint256"}],"stateMutability":"view","type":"function"},{"inputs":[{"internalType":"bytes32","name":"alphaId","type":"bytes32"}],"name":"getDealHistory","outputs":[{"components":[{"internalType":"bytes32","name":"alphaId","type":"bytes32"},{"internalType":"bool","name":"accepted","type":"bool"},{"internalType":"uint256","name":"apyBps","type":"uint256"},{"internalType":"uint256","name":"investmentWei","type":"uint256"},{"internalType":"uint256","name":"feeEarnedWei","type":"uint256"},{"internalType":"uint256","name":"timestamp","type":"uint256"}],"internalType":"struct ReputationRegistry.DealRecord[]","name":"","type":"tuple[]"}],"stateMutability":"view","type":"function"},{"inputs":[{"internalType":"bytes32","name":"alphaId","type":"bytes32"}],"name":"getScore","outputs":[{"internalType":"uint256","name":"","type":"uint256"}],"stateMutability":"view","type":"function"},{"inputs":[{"internalType":"bytes32","name":"alphaId","type":"bytes32"}],"name":"getStats","outputs":[{"components":[{"internalType":"uint256","name":"totalPitched","type":"uint256"},{"internalType":"uint256","name":"totalAccepted","type":"uint256"},{"internalType":"uint256","name":"totalInvestedWei","type":"uint256"},{"internalType":"uint256","name":"totalFeesEarnedWei","type":"uint256"},{"internalType":"uint256","name":"sumApyBps","type":"uint256"},{"internalType":"uint256","name":"lastDealAt","type":"uint256"}],"internalType":"struct ReputationRegistry.AlphaStats","name":"","type":"tuple"}],"stateMutability":"view","type":"function"},{"inputs":[],"name":"owner","outputs":[{"internalType":"address","name":"","type":"address"}],"stateMutability":"view","type":"function"},{"inputs":[{"internalType":"bytes32","name":"alphaId","type":"bytes32"},{"internalType":"bool","name":"accepted","type":"bool"},{"internalType":"uint256","name":"apyBps","type":"uint256"},{"internalType":"uint256","name":"investmentWei","type":"uint256"},{"internalType":"uint256","name":"feeEarnedWei","type":"uint256"}],"name":"recordDeal","outputs":[],"stateMutability":"nonpayable","type":"function"},{"inputs":[{"internalType":"address","name":"addr","type":"address"},{"internalType":"bool","name":"auth","type":"bool"}],"name":"setAuthorized","outputs":[],"stateMutability":"nonpayable","type":"function"},{"inputs":[{"internalType":"bytes32","name":"","type":"bytes32"}],"name":"stats","outputs":[{"internalType":"uint256","name":"totalPitched","type":"uint256"},{"internalType":"uint256","name":"totalAccepted","type":"uint256"},{"internalType":"uint256","name":"totalInvestedWei","type":"uint256"},{"internalType":"uint256","name":"totalFeesEarnedWei","type":"uint256"},{"internalType":"uint256","name":"sumApyBps","type":"uint256"},{"internalType":"uint256","name":"lastDealAt","type":"uint256"}],"stateMutability":"view","type":"function"},{"inputs":[{"internalType":"address","name":"newOwner","type":"address"}],"name":"transferOwnership","outputs":[],"stateMutability":"nonpayable","type":"function"}],"evm":{"bytecode":{"linkReferences":{},"object":"608060405234801561001057600080fd5b50600080546001600160a01b0319163390811782558152600360205260409020805460ff19166001179055610c788061004a6000396000f3fe608060405234801561001057600080fd5b506004361061009e5760003560e01c80637ba53285116100665780637ba53285146101745780638da5cb5b14610187578063ae97568c146101b2578063b918161114610223578063f2fde38b1461025657600080fd5b80630bb700dc146100a35780630cc8211e1461010b5780632fc5b3911461012b578063711bf9b214610140578063740bb64f14610153575b600080fd5b6100b66100b1366004610a2f565b610269565b6040516101029190600060c082019050825182526020830151602083015260408301516040830152606083015160608301526080830151608083015260a083015160a083015292915050565b60405180910390f35b61011e610119366004610a2f565b6102fa565b6040516101029190610a48565b61013e610139366004610ad7565b6103a7565b005b61013e61014e366004610b34565b61067a565b610166610161366004610a2f565b610704565b604051908152602001610102565b610166610182366004610a2f565b61077e565b60005461019a906001600160a01b031681565b6040516001600160a01b039091168152602001610102565b6101f66101c0366004610a2f565b60016020819052600091825260409091208054918101546002820154600383015460048401546005909401549293919290919086565b604080519687526020870195909552938501929092526060840152608083015260a082015260c001610102565b610246610231366004610b67565b60036020526000908152604090205460ff1681565b6040519015158152602001610102565b61013e610264366004610b67565b61090c565b6102a26040518060c001604052806000815260200160008152602001600081526020016000815260200160008152602001600081525090565b50600090815260016020818152604092839020835160c081018552815481529281015491830191909152600281015492820192909252600382015460608201526004820154608082015260059091015460a082015290565b606060026000838152602001908152602001600020805480602002602001604051908101604052809291908181526020016000905b8282101561039c5760008481526020908190206040805160c081018252600686029092018054835260018082015460ff1615158486015260028201549284019290925260038101546060840152600481015460808401526005015460a0830152908352909201910161032f565b505050509050919050565b3360009081526003602052604090205460ff161580156103d257506000546001600160a01b03163314155b156103f05760405163ea8e4eb560e01b815260040160405180910390fd5b600085815260016020526040812080549091829061040d83610b98565b909155505042600582015584156104855760018101805490600061043083610b98565b9190505550828160020160008282546104499190610bb1565b92505081905550818160030160008282546104649190610bb1565b925050819055508381600401600082825461047f9190610bb1565b90915550505b600086815260026020526040902080546032116105a45760005b81546104ad90600190610bca565b81101561055357816104c0826001610bb1565b815481106104d0576104d0610bdd565b90600052602060002090600602018282815481106104f0576104f0610bdd565b600091825260209091208254600690920201908155600180830154818301805460ff191660ff909216151591909117905560028084015490830155600380840154908301556004808401549083015560059283015492909101919091550161049f565b508080548061056457610564610bf3565b60008281526020812060066000199093019283020181815560018101805460ff191690556002810182905560038101829055600481018290556005015590555b6040805160c08101825288815287151560208083018281528385018a815260608086018b815260808088018c81524260a08a019081528b5460018082018e5560008e81528a90209b516006909202909b019081559651998701805460ff19169a15159a909a179099559351600286015590516003850155915160048401559451600590920191909155845192835290820189905292810187905290810185905288917fd895ac1f8f25167a79e098f9a9af5ed13c68fc80fb15b482591b67476c4097ee910160405180910390a250505050505050565b6000546001600160a01b031633146106a5576040516330cd747160e01b815260040160405180910390fd5b6001600160a01b038216600081815260036020908152604091829020805460ff191685151590811790915591519182527f5056a36abc1db1625034fdf114a164a0345b3ccf992fc1d51055e017375f4732910160405180910390a25050565b6000818152600160208181526040808420815160c081018352815481529381015492840183905260028101549184019190915260038101546060840152600481015460808401526005015460a083015282036107635750600092915050565b806020015181608001516107779190610c09565b9392505050565b6000818152600160208181526040808420815160c0810183528154808252948201549381019390935260028101549183019190915260038101546060830152600481015460808301526005015460a08201529082036107e05750600092915050565b80516020820151600091906107f6906064610c2b565b6108009190610c09565b90506000601483600001511161081757825161081a565b60145b90506000601461082b836064610c2b565b6108359190610c09565b905060008085602001511161084b57600061085f565b8460200151856080015161085f9190610c09565b9050600061086e606483610c09565b9050600060148211610896576014610887836064610c2b565b6108919190610c09565b610899565b60645b905060006108a68a610959565b905060646108b582600a610c2b565b6108c084600f610c2b565b6108cb886019610c2b565b6108d68b6032610c2b565b6108e09190610bb1565b6108ea9190610bb1565b6108f49190610bb1565b6108fe9190610c09565b9a9950505050505050505050565b6000546001600160a01b03163314610937576040516330cd747160e01b815260040160405180910390fd5b600080546001600160a01b0319166001600160a01b0392909216919091179055565b6000818152600260205260408120805482036109785750600092915050565b8054600090600a1061098b576000610999565b815461099990600a90610bca565b90506000808284805490506109ae9190610bca565b9050825b84548110156109ff578481815481106109cd576109cd610bdd565b600091825260209091206001600690920201015460ff16156109f757826109f381610b98565b9350505b6001016109b2565b5060008111610a0f576000610a25565b80610a1b836064610c2b565b610a259190610c09565b9695505050505050565b600060208284031215610a4157600080fd5b5035919050565b602080825282518282018190526000919060409081850190868401855b82811015610ab557815180518552868101511515878601528581015186860152606080820151908601526080808201519086015260a0908101519085015260c09093019290850190600101610a65565b5091979650505050505050565b80358015158114610ad257600080fd5b919050565b600080600080600060a08688031215610aef57600080fd5b85359450610aff60208701610ac2565b94979496505050506040830135926060810135926080909101359150565b80356001600160a01b0381168114610ad257600080fd5b60008060408385031215610b4757600080fd5b610b5083610b1d565b9150610b5e60208401610ac2565b90509250929050565b600060208284031215610b7957600080fd5b61077782610b1d565b634e487b7160e01b600052601160045260246000fd5b600060018201610baa57610baa610b82565b5060010190565b80820180821115610bc457610bc4610b82565b92915050565b81810381811115610bc457610bc4610b82565b634e487b7160e01b600052603260045260246000fd5b634e487b7160e01b600052603160045260246000fd5b600082610c2657634e487b7160e01b600052601260045260246000fd5b500490565b8082028115828204841417610bc457610bc4610b8256fea2646970667358221220b58cd8610aa45183f5939dca27fe495f4d899dfcbf0ff5dd192e5a90bd78dfae64736f6c63430008180033","opcodes":"PUSH1 0x80 PUSH1 0x40 MSTORE CALLVALUE DUP1 ISZERO PUSH2 0x10 JUMPI PUSH1 0x0 DUP1 REVERT JUMPDEST POP PUSH1 0x0 DUP1 SLOAD PUSH1 0x1 PUSH1 0x1 PUSH1 0xA0 SHL SUB NOT AND CALLER SWAP1 DUP2 OR DUP3 SSTORE DUP2 MSTORE PUSH1 0x3 PUSH1 0x20 MSTORE PUSH1 0x40 SWAP1 KECCAK256 DUP1 SLOAD PUSH1 0xFF NOT AND PUSH1 0x1 OR SWAP1 SSTORE PUSH2 0xC78 DUP1 PUSH2 0x4A PUSH1 0x0 CODECOPY PUSH1 0x0 RETURN INVALID PUSH1 0x80 PUSH1 0x40 MSTORE CALLVALUE DUP1 ISZERO PUSH2 0x10 JUMPI PUSH1 0x0 DUP1 REVERT JUMPDEST POP PUSH1 0x4 CALLDATASIZE LT PUSH2 0x9E JUMPI PUSH1 0x0 CALLDATALOAD PUSH1 0xE0 SHR DUP1 PUSH4 0x7BA53285 GT PUSH2 0x66 JUMPI DUP1 PUSH4 0x7BA53285 EQ PUSH2 0x174 JUMPI DUP1 PUSH4 0x8DA5CB5B EQ PUSH2 0x187 JUMPI DUP1 PUSH4 0xAE97568C EQ PUSH2 0x1B2 JUMPI DUP1 PUSH4 0xB9181611 EQ PUSH2 0x223 JUMPI DUP1 PUSH4 0xF2FDE38B EQ PUSH2 0x256 JUMPI PUSH1 0x0 DUP1 REVERT JUMPDEST DUP1 PUSH4 0xBB700DC EQ PUSH2 0xA3 JUMPI DUP1 PUSH4 0xCC8211E EQ PUSH2 0x10B JUMPI DUP1 PUSH4 0x2FC5B391 EQ PUSH2 0x12B JUMPI DUP1 PUSH4 0x711BF9B2 EQ PUSH2 0x140 JUMPI DUP1 PUSH4 0x740BB64F EQ PUSH2 0x153 JUMPI JUMPDEST PUSH1 0x0 DUP1 REVERT JUMPDEST PUSH2 0xB6 PUSH2 0xB1 CALLDATASIZE PUSH1 0x4 PUSH2 0xA2F JUMP JUMPDEST PUSH2 0x269 JUMP JUMPDEST PUSH1 0x40 MLOAD PUSH2 0x102 SWAP2 SWAP1 PUSH1 0x0 PUSH1 0xC0 DUP3 ADD SWAP1 POP DUP3 MLOAD DUP3 MSTORE PUSH1 0x20 DUP4 ADD MLOAD PUSH1 0x20 DUP4 ADD MSTORE PUSH1 0x40 DUP4 ADD MLOAD PUSH1 0x40 DUP4 ADD MSTORE PUSH1 0x60 DUP4 ADD MLOAD PUSH1 0x60 DUP4 ADD MSTORE PUSH1 0x80 DUP4 ADD MLOAD PUSH1 0x80 DUP4 ADD MSTORE PUSH1 0xA0 DUP4 ADD MLOAD PUSH1 0xA0 DUP4 ADD MSTORE SWAP3 SWAP2 POP POP JUMP JUMPDEST PUSH1 0x40 MLOAD DUP1 SWAP2 SUB SWAP1 RETURN JUMPDEST PUSH2 0x11E PUSH2 0x119 CALLDATASIZE PUSH1 0x4 PUSH2 0xA2F JUMP JUMPDEST PUSH2 0x2FA JUMP JUMPDEST PUSH1 0x40 MLOAD PUSH2 0x102 SWAP2 SWAP1 PUSH2 0xA48 JUMP JUMPDEST PUSH2 0x13E PUSH2 0x139 CALLDATASIZE PUSH1 0x4 PUSH2 0xAD7 JUMP JUMPDEST PUSH2 0x3A7 JUMP JUMPDEST STOP JUMPDEST PUSH2 0x13E PUSH2 0x14E CALLDATASIZE PUSH1 0x4 PUSH2 0xB34 JUMP JUMPDEST PUSH2 0x67A JUMP JUMPDEST PUSH2 0x166 PUSH2 0x161 CALLDATASIZE PUSH1 0x4 PUSH2 0xA2F JUMP JUMPDEST PUSH2 0x704 JUMP JUMPDEST PUSH1 0x40 MLOAD SWAP1 DUP2 MSTORE PUSH1 0x20 ADD PUSH2 0x102 JUMP JUMPDEST PUSH2 0x166 PUSH2 0x182 CALLDATASIZE PUSH1 0x4 PUSH2 0xA2F JUMP JUMPDEST PUSH2 0x77E JUMP JUMPDEST PUSH1 0x0 SLOAD PUSH2 0x19A SWAP1 PUSH1 0x1 PUSH1 0x1 PUSH1 0xA0 SHL SUB AND DUP2 JUMP JUMPDEST PUSH1 0x40 MLOAD PUSH1 0x1 PUSH1 0x1 PUSH1 0xA0 SHL SUB SWAP1 SWAP2 AND DUP2 MSTORE PUSH1 0x20 ADD PUSH2 0x102 JUMP JUMPDEST PUSH2 0x1F6 PUSH2 0x1C0 CALLDATASIZE PUSH1 0x4 PUSH2 0xA2F JUMP JUMPDEST PUSH1 0x1 PUSH1 0x20 DUP2 SWAP1 MSTORE PUSH1 0x0 SWAP2 DUP3 MSTORE PUSH1 0x40 SWAP1 SWAP2 KECCAK256 DUP1 SLOAD SWAP2 DUP2 ADD SLOAD PUSH1 0x2 DUP3 ADD SLOAD PUSH1 0x3 DUP4 ADD SLOAD PUSH1 0x4 DUP5 ADD SLOAD PUSH1 0x5 SWAP1 SWAP5 ADD SLOAD SWAP3 SWAP4 SWAP2 SWAP3 SWAP1 SWAP2 SWAP1 DUP7 JUMP JUMPDEST PUSH1 0x40 DUP1 MLOAD SWAP7 DUP8 MSTORE PUSH1 0x20 DUP8 ADD SWAP6 SWAP1 SWAP6 MSTORE SWAP4 DUP6 ADD SWAP3 SWAP1 SWAP3 MSTORE PUSH1 0x60 DUP5 ADD MSTORE PUSH1 0x80 DUP4 ADD MSTORE PUSH1 0xA0 DUP3 ADD MSTORE PUSH1 0xC0 ADD PUSH2 0x102 JUMP JUMPDEST PUSH2 0x246 PUSH2 0x231 CALLDATASIZE PUSH1 0x4 PUSH2 0xB67 JUMP JUMPDEST PUSH1 0x3 PUSH1 0x20 MSTORE PUSH1 0x0 SWAP1 DUP2 MSTORE PUSH1 0x40 SWAP1 KECCAK256 SLOAD PUSH1 0xFF AND DUP2 JUMP JUMPDEST PUSH1 0x40 MLOAD SWAP1 ISZERO ISZERO DUP2 MSTORE PUSH1 0x20 ADD PUSH2 0x102 JUMP JUMPDEST PUSH2 0x13E PUSH2 0x264 CALLDATASIZE PUSH1 0x4 PUSH2 0xB67 JUMP JUMPDEST PUSH2 0x90C JUMP JUMPDEST PUSH2 0x2A2 PUSH1 0x40 MLOAD DUP1 PUSH1 0xC0 ADD PUSH1 0x40 MSTORE DUP1 PUSH1 0x0 DUP2 MSTORE PUSH1 0x20 ADD PUSH1 0x0 DUP2 MSTORE PUSH1 0x20 ADD PUSH1 0x0 DUP2 MSTORE PUSH1 0x20 ADD PUSH1 0x0 DUP2 MSTORE PUSH1 0x20 ADD PUSH1 0x0 DUP2 MSTORE PUSH1 0x20 ADD PUSH1 0x0 DUP2 MSTORE POP SWAP1 JUMP JUMPDEST POP PUSH1 0x0 SWAP1 DUP2 MSTORE PUSH1 0x1 PUSH1 0x20 DUP2 DUP2 MSTORE PUSH1 0x40 SWAP3 DUP4 SWAP1 KECCAK256 DUP4 MLOAD PUSH1 0xC0 DUP2 ADD DUP6 MSTORE DUP2 SLOAD DUP2 MSTORE SWAP3 DUP2 ADD SLOAD SWAP2 DUP4 ADD SWAP2 SWAP1 SWAP2 MSTORE PUSH1 0x2 DUP2 ADD SLOAD SWAP3 DUP3 ADD SWAP3 SWAP1 SWAP3 MSTORE PUSH1 0x3 DUP3 ADD SLOAD PUSH1 0x60 DUP3 ADD MSTORE PUSH1 0x4 DUP3 ADD SLOAD PUSH1 0x80 DUP3 ADD MSTORE PUSH1 0x5 SWAP1 SWAP2 ADD SLOAD PUSH1 0xA0 DUP3 ADD MSTORE SWAP1 JUMP JUMPDEST PUSH1 0x60 PUSH1 0x2 PUSH1 0x0 DUP4 DUP2 MSTORE PUSH1 0x20 ADD SWAP1 DUP2 MSTORE PUSH1 0x20 ADD PUSH1 0x0 KECCAK256 DUP1 SLOAD DUP1 PUSH1 0x20 MUL PUSH1 0x20 ADD PUSH1 0x40 MLOAD SWAP1 DUP2 ADD PUSH1 0x40 MSTORE DUP1 SWAP3 SWAP2 SWAP1 DUP2 DUP2 MSTORE PUSH1 0x20 ADD PUSH1 0x0 SWAP1 JUMPDEST DUP3 DUP3 LT ISZERO PUSH2 0x39C JUMPI PUSH1 0x0 DUP5 DUP2 MSTORE PUSH1 0x20 SWAP1 DUP2 SWAP1 KECCAK256 PUSH1 0x40 DUP1 MLOAD PUSH1 0xC0 DUP2 ADD DUP3 MSTORE PUSH1 0x6 DUP7 MUL SWAP1 SWAP3 ADD DUP1 SLOAD DUP4 MSTORE PUSH1 0x1 DUP1 DUP3 ADD SLOAD PUSH1 0xFF AND ISZERO ISZERO DUP5 DUP7 ADD MSTORE PUSH1 0x2 DUP3 ADD SLOAD SWAP3 DUP5 ADD SWAP3 SWAP1 SWAP3 MSTORE PUSH1 0x3 DUP2 ADD SLOAD PUSH1 0x60 DUP5 ADD MSTORE PUSH1 0x4 DUP2 ADD SLOAD PUSH1 0x80 DUP5 ADD MSTORE PUSH1 0x5 ADD SLOAD PUSH1 0xA0 DUP4 ADD MSTORE SWAP1 DUP4 MSTORE SWAP1 SWAP3 ADD SWAP2 ADD PUSH2 0x32F JUMP JUMPDEST POP POP POP POP SWAP1 POP SWAP2 SWAP1 POP JUMP JUMPDEST CALLER PUSH1 0x0 SWAP1 DUP2 MSTORE PUSH1 0x3 PUSH1 0x20 MSTORE PUSH1 0x40 SWAP1 KECCAK256 SLOAD PUSH1 0xFF AND ISZERO DUP1 ISZERO PUSH2 0x3D2 JUMPI POP PUSH1 0x0 SLOAD PUSH1 0x1 PUSH1 0x1 PUSH1 0xA0 SHL SUB AND CALLER EQ ISZERO JUMPDEST ISZERO PUSH2 0x3F0 JUMPI PUSH1 0x40 MLOAD PUSH4 0xEA8E4EB5 PUSH1 0xE0 SHL DUP2 MSTORE PUSH1 0x4 ADD PUSH1 0x40 MLOAD DUP1 SWAP2 SUB SWAP1 REVERT JUMPDEST PUSH1 0x0 DUP6 DUP2 MSTORE PUSH1 0x1 PUSH1 0x20 MSTORE PUSH1 0x40 DUP2 KECCAK256 DUP1 SLOAD SWAP1 SWAP2 DUP3 SWAP1 PUSH2 0x40D DUP4 PUSH2 0xB98 JUMP JUMPDEST SWAP1 SWAP2 SSTORE POP POP TIMESTAMP PUSH1 0x5 DUP3 ADD SSTORE DUP5 ISZERO PUSH2 0x485 JUMPI PUSH1 0x1 DUP2 ADD DUP1 SLOAD SWAP1 PUSH1 0x0 PUSH2 0x430 DUP4 PUSH2 0xB98 JUMP JUMPDEST SWAP2 SWAP1 POP SSTORE POP DUP3 DUP2 PUSH1 0x2 ADD PUSH1 0x0 DUP3 DUP3 SLOAD PUSH2 0x449 SWAP2 SWAP1 PUSH2 0xBB1 JUMP JUMPDEST SWAP3 POP POP DUP2 SWAP1 SSTORE POP DUP2 DUP2 PUSH1 0x3 ADD PUSH1 0x0 DUP3 DUP3 SLOAD PUSH2 0x464 SWAP2 SWAP1 PUSH2 0xBB1 JUMP JUMPDEST SWAP3 POP POP DUP2 SWAP1 SSTORE POP DUP4 DUP2 PUSH1 0x4 ADD PUSH1 0x0 DUP3 DUP3 SLOAD PUSH2 0x47F SWAP2 SWAP1 PUSH2 0xBB1 JUMP JUMPDEST SWAP1 SWAP2 SSTORE POP POP JUMPDEST PUSH1 0x0 DUP7 DUP2 MSTORE PUSH1 0x2 PUSH1 0x20 MSTORE PUSH1 0x40 SWAP1 KECCAK256 DUP1 SLOAD PUSH1 0x32 GT PUSH2 0x5A4 JUMPI PUSH1 0x0 JUMPDEST DUP2 SLOAD PUSH2 0x4AD SWAP1 PUSH1 0x1 SWAP1 PUSH2 0xBCA JUMP JUMPDEST DUP2 LT ISZERO PUSH2 0x553 JUMPI DUP2 PUSH2 0x4C0 DUP3 PUSH1 0x1 PUSH2 0xBB1 JUMP JUMPDEST DUP2 SLOAD DUP2 LT PUSH2 0x4D0 JUMPI PUSH2 0x4D0 PUSH2 0xBDD JUMP JUMPDEST SWAP1 PUSH1 0x0 MSTORE PUSH1 0x20 PUSH1 0x0 KECCAK256 SWAP1 PUSH1 0x6 MUL ADD DUP3 DUP3 DUP2 SLOAD DUP2 LT PUSH2 0x4F0 JUMPI PUSH2 0x4F0 PUSH2 0xBDD JUMP JUMPDEST PUSH1 0x0 SWAP2 DUP3 MSTORE PUSH1 0x20 SWAP1 SWAP2 KECCAK256 DUP3 SLOAD PUSH1 0x6 SWAP1 SWAP3 MUL ADD SWAP1 DUP2 SSTORE PUSH1 0x1 DUP1 DUP4 ADD SLOAD DUP2 DUP4 ADD DUP1 SLOAD PUSH1 0xFF NOT AND PUSH1 0xFF SWAP1 SWAP3 AND ISZERO ISZERO SWAP2 SWAP1 SWAP2 OR SWAP1 SSTORE PUSH1 0x2 DUP1 DUP5 ADD SLOAD SWAP1 DUP4 ADD SSTORE PUSH1 0x3 DUP1 DUP5 ADD SLOAD SWAP1 DUP4 ADD SSTORE PUSH1 0x4 DUP1 DUP5 ADD SLOAD SWAP1 DUP4 ADD SSTORE PUSH1 0x5 SWAP3 DUP4 ADD SLOAD SWAP3 SWAP1 SWAP2 ADD SWAP2 SWAP1 SWAP2 SSTORE ADD PUSH2 0x49F JUMP JUMPDEST POP DUP1 DUP1 SLOAD DUP1 PUSH2 0x564 JUMPI PUSH2 0x564 PUSH2 0xBF3 JUMP JUMPDEST PUSH1 0x0 DUP3 DUP2 MSTORE PUSH1 0x20 DUP2 KECCAK256 PUSH1 0x6 PUSH1 0x0 NOT SWAP1 SWAP4 ADD SWAP3 DUP4 MUL ADD DUP2 DUP2 SSTORE PUSH1 0x1 DUP2 ADD DUP1 SLOAD PUSH1 0xFF NOT AND SWAP1 SSTORE PUSH1 0x2 DUP2 ADD DUP3 SWAP1 SSTORE PUSH1 0x3 DUP2 ADD DUP3 SWAP1 SSTORE PUSH1 0x4 DUP2 ADD DUP3 SWAP1 SSTORE PUSH1 0x5 ADD SSTORE SWAP1 SSTORE JUMPDEST PUSH1 0x40 DUP1 MLOAD PUSH1 0xC0 DUP2 ADD DUP3 MSTORE DUP9 DUP2 MSTORE DUP8 ISZERO ISZERO PUSH1 0x20 DUP1 DUP4 ADD DUP3 DUP2 MSTORE DUP4 DUP6 ADD DUP11 DUP2 MSTORE PUSH1 0x60 DUP1 DUP7 ADD DUP12 DUP2 MSTORE PUSH1 0x80 DUP1 DUP9 ADD DUP13 DUP2 MSTORE TIMESTAMP PUSH1 0xA0 DUP11 ADD SWAP1 DUP2 MSTORE DUP12 SLOAD PUSH1 0x1 DUP1 DUP3 ADD DUP15 SSTORE PUSH1 0x0 DUP15 DUP2 MSTORE DUP11 SWAP1 KECCAK256 SWAP12 MLOAD PUSH1 0x6 SWAP1 SWAP3 MUL SWAP1 SWAP12 ADD SWAP1 DUP2 SSTORE SWAP7 MLOAD SWAP10 DUP8 ADD DUP1 SLOAD PUSH1 0xFF NOT AND SWAP11 ISZERO ISZERO SWAP11 SWAP1 SWAP11 OR SWAP1 SWAP10 SSTORE SWAP4 MLOAD PUSH1 0x2 DUP7 ADD SSTORE SWAP1 MLOAD PUSH1 0x3 DUP6 ADD SSTORE SWAP2 MLOAD PUSH1 0x4 DUP5 ADD SSTORE SWAP5 MLOAD PUSH1 0x5 SWAP1 SWAP3 ADD SWAP2 SWAP1 SWAP2 SSTORE DUP5 MLOAD SWAP3 DUP4 MSTORE SWAP1 DUP3 ADD DUP10 SWAP1 MSTORE SWAP3 DUP2 ADD DUP8 SWAP1 MSTORE SWAP1 DUP2 ADD DUP6 SWAP1 MSTORE DUP9 SWAP2 PUSH32 0xD895AC1F8F25167A79E098F9A9AF5ED13C68FC80FB15B482591B67476C4097EE SWAP2 ADD PUSH1 0x40 MLOAD DUP1 SWAP2 SUB SWAP1 LOG2 POP POP POP POP POP POP POP JUMP JUMPDEST PUSH1 0x0 SLOAD PUSH1 0x1 PUSH1 0x1 PUSH1 0xA0 SHL SUB AND CALLER EQ PUSH2 0x6A5 JUMPI PUSH1 0x40 MLOAD PUSH4 0x30CD7471 PUSH1 0xE0 SHL DUP2 MSTORE PUSH1 0x4 ADD PUSH1 0x40 MLOAD DUP1 SWAP2 SUB SWAP1 REVERT JUMPDEST PUSH1 0x1 PUSH1 0x1 PUSH1 0xA0 SHL SUB DUP3 AND PUSH1 0x0 DUP2 DUP2 MSTORE PUSH1 0x3 PUSH1 0x20 SWAP1 DUP2 MSTORE PUSH1 0x40 SWAP2 DUP3 SWAP1 KECCAK256 DUP1 SLOAD PUSH1 0xFF NOT AND DUP6 ISZERO ISZERO SWAP1 DUP2 OR SWAP1 SWAP2 SSTORE SWAP2 MLOAD SWAP2 DUP3 MSTORE PUSH32 0x5056A36ABC1DB1625034FDF114A164A0345B3CCF992FC1D51055E017375F4732 SWAP2 ADD PUSH1 0x40 MLOAD DUP1 SWAP2 SUB SWAP1 LOG2 POP POP JUMP JUMPDEST PUSH1 0x0 DUP2 DUP2 MSTORE PUSH1 0x1 PUSH1 0x20 DUP2 DUP2 MSTORE PUSH1 0x40 DUP1 DUP5 KECCAK256 DUP2 MLOAD PUSH1 0xC0 DUP2 ADD DUP4 MSTORE DUP2 SLOAD DUP2 MSTORE SWAP4 DUP2 ADD SLOAD SWAP3 DUP5 ADD DUP4 SWAP1 MSTORE PUSH1 0x2 DUP2 ADD SLOAD SWAP2 DUP5 ADD SWAP2 SWAP1 SWAP2 MSTORE PUSH1 0x3 DUP2 ADD SLOAD PUSH1 0x60 DUP5 ADD MSTORE PUSH1 0x4 DUP2 ADD SLOAD PUSH1 0x80 DUP5 ADD MSTORE PUSH1 0x5 ADD SLOAD PUSH1 0xA0 DUP4 ADD MSTORE DUP3 SUB PUSH2 0x763 JUMPI POP PUSH1 0x0 SWAP3 SWAP2 POP POP JUMP JUMPDEST DUP1 PUSH1 0x20 ADD MLOAD DUP2 PUSH1 0x80 ADD MLOAD PUSH2 0x777 SWAP2 SWAP1 PUSH2 0xC09 JUMP JUMPDEST SWAP4 SWAP3 POP POP POP JUMP JUMPDEST PUSH1 0x0 DUP2 DUP2 MSTORE PUSH1 0x1 PUSH1 0x20 DUP2 DUP2 MSTORE PUSH1 0x40 DUP1 DUP5 KECCAK256 DUP2 MLOAD PUSH1 0xC0 DUP2 ADD DUP4 MSTORE DUP2 SLOAD DUP1 DUP3 MSTORE SWAP5 DUP3 ADD SLOAD SWAP4 DUP2 ADD SWAP4 SWAP1 SWAP4 MSTORE PUSH1 0x2 DUP2 ADD SLOAD SWAP2 DUP4 ADD SWAP2 SWAP1 SWAP2 MSTORE PUSH1 0x3 DUP2 ADD SLOAD PUSH1 0x60 DUP4 ADD MSTORE PUSH1 0x4 DUP2 ADD SLOAD PUSH1 0x80 DUP4 ADD MSTORE PUSH1 0x5 ADD SLOAD PUSH1 0xA0 DUP3 ADD MSTORE SWAP1 DUP3 SUB PUSH2 0x7E0 JUMPI POP PUSH1 0x0 SWAP3 SWAP2 POP POP JUMP JUMPDEST DUP1 MLOAD PUSH1 0x20 DUP3 ADD MLOAD PUSH1 0x0 SWAP2 SWAP1 PUSH2 0x7F6 SWAP1 PUSH1 0x64 PUSH2 0xC2B JUMP JUMPDEST PUSH2 0x800 SWAP2 SWAP1 PUSH2 0xC09 JUMP JUMPDEST SWAP1 POP PUSH1 0x0 PUSH1 0x14 DUP4 PUSH1 0x0 ADD MLOAD GT PUSH2 0x817 JUMPI DUP3 MLOAD PUSH2 0x81A JUMP JUMPDEST PUSH1 0x14 JUMPDEST SWAP1 POP PUSH1 0x0 PUSH1 0x14 PUSH2 0x82B DUP4 PUSH1 0x64 PUSH2 0xC2B JUMP JUMPDEST PUSH2 0x835 SWAP2 SWAP1 PUSH2 0xC09 JUMP JUMPDEST SWAP1 POP PUSH1 0x0 DUP1 DUP6 PUSH1 0x20 ADD MLOAD GT PUSH2 0x84B JUMPI PUSH1 0x0 PUSH2 0x85F JUMP JUMPDEST DUP5 PUSH1 0x20 ADD MLOAD DUP6 PUSH1 0x80 ADD MLOAD PUSH2 0x85F SWAP2 SWAP1 PUSH2 0xC09 JUMP JUMPDEST SWAP1 POP PUSH1 0x0 PUSH2 0x86E PUSH1 0x64 DUP4 PUSH2 0xC09 JUMP JUMPDEST SWAP1 POP PUSH1 0x0 PUSH1 0x14 DUP3 GT PUSH2 0x896 JUMPI PUSH1 0x14 PUSH2 0x887 DUP4 PUSH1 0x64 PUSH2 0xC2B JUMP JUMPDEST PUSH2 0x891 SWAP2 SWAP1 PUSH2 0xC09 JUMP JUMPDEST PUSH2 0x899 JUMP JUMPDEST PUSH1 0x64 JUMPDEST SWAP1 POP PUSH1 0x0 PUSH2 0x8A6 DUP11 PUSH2 0x959 JUMP JUMPDEST SWAP1 POP PUSH1 0x64 PUSH2 0x8B5 DUP3 PUSH1 0xA PUSH2 0xC2B JUMP JUMPDEST PUSH2 0x8C0 DUP5 PUSH1 0xF PUSH2 0xC2B JUMP JUMPDEST PUSH2 0x8CB DUP9 PUSH1 0x19 PUSH2 0xC2B JUMP JUMPDEST PUSH2 0x8D6 DUP12 PUSH1 0x32 PUSH2 0xC2B JUMP JUMPDEST PUSH2 0x8E0 SWAP2 SWAP1 PUSH2 0xBB1 JUMP JUMPDEST PUSH2 0x8EA SWAP2 SWAP1 PUSH2 0xBB1 JUMP JUMPDEST PUSH2 0x8F4 SWAP2 SWAP1 PUSH2 0xBB1 JUMP JUMPDEST PUSH2 0x8FE SWAP2 SWAP1 PUSH2 0xC09 JUMP JUMPDEST SWAP11 SWAP10 POP POP POP POP POP POP POP POP POP POP JUMP JUMPDEST PUSH1 0x0 SLOAD PUSH1 0x1 PUSH1 0x1 PUSH1 0xA0 SHL SUB AND CALLER EQ PUSH2 0x937 JUMPI PUSH1 0x40 MLOAD PUSH4 0x30CD7471 PUSH1 0xE0 SHL DUP2 MSTORE PUSH1 0x4 ADD PUSH1 0x40 MLOAD DUP1 SWAP2 SUB SWAP1 REVERT JUMPDEST PUSH1 0x0 DUP1 SLOAD PUSH1 0x1 PUSH1 0x1 PUSH1 0xA0 SHL SUB NOT AND PUSH1 0x1 PUSH1 0x1 PUSH1 0xA0 SHL SUB SWAP3 SWAP1 SWAP3 AND SWAP2 SWAP1 SWAP2 OR SWAP1 SSTORE JUMP JUMPDEST PUSH1 0x0 DUP2 DUP2 MSTORE PUSH1 0x2 PUSH1 0x20 MSTORE PUSH1 0x40 DUP2 KECCAK256 DUP1 SLOAD DUP3 SUB PUSH2 0x978 JUMPI POP PUSH1 0x0 SWAP3 SWAP2 POP POP JUMP JUMPDEST DUP1 SLOAD PUSH1 0x0 SWAP1 PUSH1 0xA LT PUSH2 0x98B JUMPI PUSH1 0x0 PUSH2 0x999 JUMP JUMPDEST DUP2 SLOAD PUSH2 0x999 SWAP1 PUSH1 0xA SWAP1 PUSH2 0xBCA JUMP JUMPDEST SWAP1 POP PUSH1 0x0 DUP1 DUP3 DUP5 DUP1 SLOAD SWAP1 POP PUSH2 0x9AE SWAP2 SWAP1 PUSH2 0xBCA JUMP JUMPDEST SWAP1 POP DUP3 JUMPDEST DUP5 SLOAD DUP2 LT ISZERO PUSH2 0x9FF JUMPI DUP5 DUP2 DUP2 SLOAD DUP2 LT PUSH2 0x9CD JUMPI PUSH2 0x9CD PUSH2 0xBDD JUMP JUMPDEST PUSH1 0x0 SWAP2 DUP3 MSTORE PUSH1 0x20 SWAP1 SWAP2 KECCAK256 PUSH1 0x1 PUSH1 0x6 SWAP1 SWAP3 MUL ADD ADD SLOAD PUSH1 0xFF AND ISZERO PUSH2 0x9F7 JUMPI DUP3 PUSH2 0x9F3 DUP2 PUSH2 0xB98 JUMP JUMPDEST SWAP4 POP POP JUMPDEST PUSH1 0x1 ADD PUSH2 0x9B2 JUMP JUMPDEST POP PUSH1 0x0 DUP2 GT PUSH2 0xA0F JUMPI PUSH1 0x0 PUSH2 0xA25 JUMP JUMPDEST DUP1 PUSH2 0xA1B DUP4 PUSH1 0x64 PUSH2 0xC2B JUMP JUMPDEST PUSH2 0xA25 SWAP2 SWAP1 PUSH2 0xC09 JUMP JUMPDEST SWAP7 SWAP6 POP POP POP POP POP POP JUMP JUMPDEST PUSH1 0x0 PUSH1 0x20 DUP3 DUP5 SUB SLT ISZERO PUSH2 0xA41 JUMPI PUSH1 0x0 DUP1 REVERT JUMPDEST POP CALLDATALOAD SWAP2 SWAP1 POP JUMP JUMPDEST PUSH1 0x20 DUP1 DUP3 MSTORE DUP3 MLOAD DUP3 DUP3 ADD DUP2 SWAP1 MSTORE PUSH1 0x0 SWAP2 SWAP1 PUSH1 0x40 SWAP1 DUP2 DUP6 ADD SWAP1 DUP7 DUP5 ADD DUP6 JUMPDEST DUP3 DUP2 LT ISZERO PUSH2 0xAB5 JUMPI DUP2 MLOAD DUP1 MLOAD DUP6 MSTORE DUP7 DUP2 ADD MLOAD ISZERO ISZERO DUP8 DUP7 ADD MSTORE DUP6 DUP2 ADD MLOAD DUP7 DUP7 ADD MSTORE PUSH1 0x60 DUP1 DUP3 ADD MLOAD SWAP1 DUP7 ADD MSTORE PUSH1 0x80 DUP1 DUP3 ADD MLOAD SWAP1 DUP7 ADD MSTORE PUSH1 0xA0 SWAP1 DUP2 ADD MLOAD SWAP1 DUP6 ADD MSTORE PUSH1 0xC0 SWAP1 SWAP4 ADD SWAP3 SWAP1 DUP6 ADD SWAP1 PUSH1 0x1 ADD PUSH2 0xA65 JUMP JUMPDEST POP SWAP2 SWAP8 SWAP7 POP POP POP POP POP POP POP JUMP JUMPDEST DUP1 CALLDATALOAD DUP1 ISZERO ISZERO DUP2 EQ PUSH2 0xAD2 JUMPI PUSH1 0x0 DUP1 REVERT JUMPDEST SWAP2 SWAP1 POP JUMP JUMPDEST PUSH1 0x0 DUP1 PUSH1 0x0 DUP1 PUSH1 0x0 PUSH1 0xA0 DUP7 DUP9 SUB SLT ISZERO PUSH2 0xAEF JUMPI PUSH1 0x0 DUP1 REVERT JUMPDEST DUP6 CALLDATALOAD SWAP5 POP PUSH2 0xAFF PUSH1 0x20 DUP8 ADD PUSH2 0xAC2 JUMP JUMPDEST SWAP5 SWAP8 SWAP5 SWAP7 POP POP POP POP PUSH1 0x40 DUP4 ADD CALLDATALOAD SWAP3 PUSH1 0x60 DUP2 ADD CALLDATALOAD SWAP3 PUSH1 0x80 SWAP1 SWAP2 ADD CALLDATALOAD SWAP2 POP JUMP JUMPDEST DUP1 CALLDATALOAD PUSH1 0x1 PUSH1 0x1 PUSH1 0xA0 SHL SUB DUP2 AND DUP2 EQ PUSH2 0xAD2 JUMPI PUSH1 0x0 DUP1 REVERT JUMPDEST PUSH1 0x0 DUP1 PUSH1 0x40 DUP4 DUP6 SUB SLT ISZERO PUSH2 0xB47 JUMPI PUSH1 0x0 DUP1 REVERT JUMPDEST PUSH2 0xB50 DUP4 PUSH2 0xB1D JUMP JUMPDEST SWAP2 POP PUSH2 0xB5E PUSH1 0x20 DUP5 ADD PUSH2 0xAC2 JUMP JUMPDEST SWAP1 POP SWAP3 POP SWAP3 SWAP1 POP JUMP JUMPDEST PUSH1 0x0 PUSH1 0x20 DUP3 DUP5 SUB SLT ISZERO PUSH2 0xB79 JUMPI PUSH1 0x0 DUP1 REVERT JUMPDEST PUSH2 0x777 DUP3 PUSH2 0xB1D JUMP JUMPDEST PUSH4 0x4E487B71 PUSH1 0xE0 SHL PUSH1 0x0 MSTORE PUSH1 0x11 PUSH1 0x4 MSTORE PUSH1 0x24 PUSH1 0x0 REVERT JUMPDEST PUSH1 0x0 PUSH1 0x1 DUP3 ADD PUSH2 0xBAA JUMPI PUSH2 0xBAA PUSH2 0xB82 JUMP JUMPDEST POP PUSH1 0x1 ADD SWAP1 JUMP JUMPDEST DUP1 DUP3 ADD DUP1 DUP3 GT ISZERO PUSH2 0xBC4 JUMPI PUSH2 0xBC4 PUSH2 0xB82 JUMP JUMPDEST SWAP3 SWAP2 POP POP JUMP JUMPDEST DUP2 DUP2 SUB DUP2 DUP2 GT ISZERO PUSH2 0xBC4 JUMPI PUSH2 0xBC4 PUSH2 0xB82 JUMP JUMPDEST PUSH4 0x4E487B71 PUSH1 0xE0 SHL PUSH1 0x0 MSTORE PUSH1 0x32 PUSH1 0x4 MSTORE PUSH1 0x24 PUSH1 0x0 REVERT JUMPDEST PUSH4 0x4E487B71 PUSH1 0xE0 SHL PUSH1 0x0 MSTORE PUSH1 0x31 PUSH1 0x4 MSTORE PUSH1 0x24 PUSH1 0x0 REVERT JUMPDEST PUSH1 0x0 DUP3 PUSH2 0xC26 JUMPI PUSH4 0x4E487B71 PUSH1 0xE0 SHL PUSH1 0x0 MSTORE PUSH1 0x12 PUSH1 0x4 MSTORE PUSH1 0x24 PUSH1 0x0 REVERT JUMPDEST POP DIV SWAP1 JUMP JUMPDEST DUP1 DUP3 MUL DUP2 ISZERO DUP3 DUP3 DIV DUP5 EQ OR PUSH2 0xBC4 JUMPI PUSH2 0xBC4 PUSH2 0xB82 JUMP INVALID LOG2 PUSH5 0x6970667358 0x22 SLT KECCAK256 0xB5 DUP13 0xD8 PUSH2 0xAA4 MLOAD DUP4 CREATE2 SWAP4 SWAP14 0xCA 0x27 INVALID BLOBHASH PUSH0 0x4D DUP10 SWAP14 0xFC 0xBF 0xF CREATE2 0xDD NOT 0x2E GAS SWAP1 0xBD PUSH25 0xDFAE64736F6C63430008180033000000000000000000000000 "},"methodIdentifiers":{"authorized(address)":"b9181611","getAvgApy(bytes32)":"740bb64f","getDealHistory(bytes32)":"0cc8211e","getScore(bytes32)":"7ba53285","getStats(bytes32)":"0bb700dc","owner()":"8da5cb5b","recordDeal(bytes32,bool,uint256,uint256,uint256)":"2fc5b391","setAuthorized(address,bool)":"711bf9b2","stats(bytes32)":"ae97568c","transferOwnership(address)":"f2fde38b"}}}}}