{
  "_format": "hh-sol-artifact-1",
  "contractName": "AgentRegistry",
  "sourceName": "contracts/AgentRegistry.sol",
  "abi": [
    {
      "inputs": [],
      "stateMutability": "nonpayable",
      "type": "constructor"
    },
    {
      "inputs": [],
      "name": "AlphaNotFound",
      "type": "error"
    },
    {
      "inputs": [],
      "name": "AlreadyRegistered",
      "type": "error"
    },
    {
      "inputs": [],
      "name": "AlreadySubscribed",
      "type": "error"
    },
    {
      "inputs": [],
      "name": "NotOwner",
      "type": "error"
    },
    {
      "inputs": [],
      "name": "NotSubscribed",
      "type": "error"
    },
    {
      "anonymous": false,
      "inputs": [
        {
          "indexed": true,
          "internalType": "bytes32",
          "name": "agentId",
          "type": "bytes32"
        }
      ],
      "name": "AlphaDeactivated",
      "type": "event"
    },
    {
      "anonymous": false,
      "inputs": [
        {
          "indexed": true,
          "internalType": "bytes32",
          "name": "agentId",
          "type": "bytes32"
        },
        {
          "indexed": false,
          "internalType": "string",
          "name": "name",
          "type": "string"
        },
        {
          "indexed": false,
          "internalType": "address",
          "name": "feeAddress",
          "type": "address"
        }
      ],
      "name": "AlphaRegistered",
      "type": "event"
    },
    {
      "anonymous": false,
      "inputs": [
        {
          "indexed": true,
          "internalType": "address",
          "name": "subscriber",
          "type": "address"
        },
        {
          "indexed": true,
          "internalType": "bytes32",
          "name": "agentId",
          "type": "bytes32"
        }
      ],
      "name": "Subscribed",
      "type": "event"
    },
    {
      "anonymous": false,
      "inputs": [
        {
          "indexed": true,
          "internalType": "address",
          "name": "subscriber",
          "type": "address"
        },
        {
          "indexed": true,
          "internalType": "bytes32",
          "name": "agentId",
          "type": "bytes32"
        }
      ],
      "name": "Unsubscribed",
      "type": "event"
    },
    {
      "inputs": [
        {
          "internalType": "bytes32",
          "name": "",
          "type": "bytes32"
        }
      ],
      "name": "alphaAgents",
      "outputs": [
        {
          "internalType": "bytes32",
          "name": "agentId",
          "type": "bytes32"
        },
        {
          "internalType": "string",
          "name": "name",
          "type": "string"
        },
        {
          "internalType": "string",
          "name": "pitchStyle",
          "type": "string"
        },
        {
          "internalType": "address",
          "name": "feeAddress",
          "type": "address"
        },
        {
          "internalType": "bool",
          "name": "active",
          "type": "bool"
        },
        {
          "internalType": "uint256",
          "name": "registeredAt",
          "type": "uint256"
        }
      ],
      "stateMutability": "view",
      "type": "function"
    },
    {
      "inputs": [
        {
          "internalType": "uint256",
          "name": "",
          "type": "uint256"
        }
      ],
      "name": "alphaIds",
      "outputs": [
        {
          "internalType": "bytes32",
          "name": "",
          "type": "bytes32"
        }
      ],
      "stateMutability": "view",
      "type": "function"
    },
    {
      "inputs": [
        {
          "internalType": "bytes32",
          "name": "agentId",
          "type": "bytes32"
        }
      ],
      "name": "deactivateAlpha",
      "outputs": [],
      "stateMutability": "nonpayable",
      "type": "function"
    },
    {
      "inputs": [],
      "name": "getAllAlphas",
      "outputs": [
        {
          "internalType": "bytes32[]",
          "name": "ids",
          "type": "bytes32[]"
        },
        {
          "components": [
            {
              "internalType": "bytes32",
              "name": "agentId",
              "type": "bytes32"
            },
            {
              "internalType": "string",
              "name": "name",
              "type": "string"
            },
            {
              "internalType": "string",
              "name": "pitchStyle",
              "type": "string"
            },
            {
              "internalType": "address",
              "name": "feeAddress",
              "type": "address"
            },
            {
              "internalType": "bool",
              "name": "active",
              "type": "bool"
            },
            {
              "internalType": "uint256",
              "name": "registeredAt",
              "type": "uint256"
            }
          ],
          "internalType": "struct AgentRegistry.AlphaInfo[]",
          "name": "infos",
          "type": "tuple[]"
        }
      ],
      "stateMutability": "view",
      "type": "function"
    },
    {
      "inputs": [],
      "name": "getAlphaCount",
      "outputs": [
        {
          "internalType": "uint256",
          "name": "",
          "type": "uint256"
        }
      ],
      "stateMutability": "view",
      "type": "function"
    },
    {
      "inputs": [
        {
          "internalType": "bytes32",
          "name": "agentId",
          "type": "bytes32"
        }
      ],
      "name": "getFeeAddress",
      "outputs": [
        {
          "internalType": "address",
          "name": "",
          "type": "address"
        }
      ],
      "stateMutability": "view",
      "type": "function"
    },
    {
      "inputs": [
        {
          "internalType": "address",
          "name": "subscriber",
          "type": "address"
        }
      ],
      "name": "getSubscriptions",
      "outputs": [
        {
          "internalType": "bytes32[]",
          "name": "",
          "type": "bytes32[]"
        }
      ],
      "stateMutability": "view",
      "type": "function"
    },
    {
      "inputs": [
        {
          "internalType": "address",
          "name": "",
          "type": "address"
        },
        {
          "internalType": "bytes32",
          "name": "",
          "type": "bytes32"
        }
      ],
      "name": "isSubscribed",
      "outputs": [
        {
          "internalType": "bool",
          "name": "",
          "type": "bool"
        }
      ],
      "stateMutability": "view",
      "type": "function"
    },
    {
      "inputs": [],
      "name": "owner",
      "outputs": [
        {
          "internalType": "address",
          "name": "",
          "type": "address"
        }
      ],
      "stateMutability": "view",
      "type": "function"
    },
    {
      "inputs": [
        {
          "internalType": "bytes32",
          "name": "agentId",
          "type": "bytes32"
        },
        {
          "internalType": "string",
          "name": "name",
          "type": "string"
        },
        {
          "internalType": "string",
          "name": "pitchStyle",
          "type": "string"
        },
        {
          "internalType": "address",
          "name": "feeAddress",
          "type": "address"
        }
      ],
      "name": "registerAlpha",
      "outputs": [],
      "stateMutability": "nonpayable",
      "type": "function"
    },
    {
      "inputs": [
        {
          "internalType": "bytes32",
          "name": "agentId",
          "type": "bytes32"
        }
      ],
      "name": "subscribe",
      "outputs": [],
      "stateMutability": "nonpayable",
      "type": "function"
    },
    {
      "inputs": [
        {
          "internalType": "address",
          "name": "newOwner",
          "type": "address"
        }
      ],
      "name": "transferOwnership",
      "outputs": [],
      "stateMutability": "nonpayable",
      "type": "function"
    },
    {
      "inputs": [
        {
          "internalType": "bytes32",
          "name": "agentId",
          "type": "bytes32"
        }
      ],
      "name": "unsubscribe",
      "outputs": [],
      "stateMutability": "nonpayable",
      "type": "function"
    }
  ],
  "bytecode": "0x608060405234801561001057600080fd5b50600080546001600160a01b031916331790556110fa806100326000396000f3fe608060405234801561001057600080fd5b50600436106100ce5760003560e01c806380eea1ee1161008c5780638da5cb5b116100665780638da5cb5b146102065780639259b93414610219578063f2fde38b1461022c578063f8c601461461023f57600080fd5b806380eea1ee146101aa578063841372f1146101e85780638cb8ad1f146101f057600080fd5b80623bd274146100d35780630c2c349d1461011c5780631e5526d0146101415780632faf44f6146101625780635d6a4413146101775780636a898c0714610197575b600080fd5b6100ff6100e1366004610bc9565b6000908152600260205260409020600301546001600160a01b031690565b6040516001600160a01b0390911681526020015b60405180910390f35b61012f61012a366004610bc9565b610252565b60405161011396959493929190610c28565b61015461014f366004610bc9565b6103a7565b604051908152602001610113565b610175610170366004610bc9565b6103c8565b005b61018a610185366004610c97565b6104ab565b6040516101139190610cf5565b6101756101a5366004610d51565b610517565b6101d86101b8366004610dda565b600360209081526000928352604080842090915290825290205460ff1681565b6040519015158152602001610113565b600154610154565b6101f861071e565b604051610113929190610e04565b6000546100ff906001600160a01b031681565b610175610227366004610bc9565b6109c6565b61017561023a366004610c97565b610a37565b61017561024d366004610bc9565b610a84565b6002602052600090815260409020805460018201805491929161027490610ecf565b80601f01602080910402602001604051908101604052809291908181526020018280546102a090610ecf565b80156102ed5780601f106102c2576101008083540402835291602001916102ed565b820191906000526020600020905b8154815290600101906020018083116102d057829003601f168201915b50505050509080600201805461030290610ecf565b80601f016020809104026020016040519081016040528092919081815260200182805461032e90610ecf565b801561037b5780601f106103505761010080835404028352916020019161037b565b820191906000526020600020905b81548152906001019060200180831161035e57829003601f168201915b50505050600383015460049093015491926001600160a01b03811692600160a01b90910460ff16915086565b600181815481106103b757600080fd5b600091825260209091200154905081565b600081815260026020526040902060030154600160a01b900460ff166104015760405163ad74b05b60e01b815260040160405180910390fd5b33600090815260036020908152604080832084845290915290205460ff161561043d57604051632fec509960e11b815260040160405180910390fd5b3360008181526003602090815260408083208584528252808320805460ff1916600190811790915584845260048352818420805491820181558452918320909101849055518392917f3e8901f9ef2d2a2a75af91d229b1ab4c4530ff19a91e142a22249976b4f9fdb291a350565b6001600160a01b03811660009081526004602090815260409182902080548351818402810184019094528084526060939283018282801561050b57602002820191906000526020600020905b8154815260200190600101908083116104f7575b50505050509050919050565b6000546001600160a01b03163314610542576040516330cd747160e01b815260040160405180910390fd5b600086815260026020526040902060030154600160a01b900460ff161561057c57604051630ea075bf60e21b815260040160405180910390fd5b6040518060c0016040528087815260200186868080601f016020809104026020016040519081016040528093929190818152602001838380828437600092019190915250505090825250604080516020601f87018190048102820181019092528581529181019190869086908190840183828082843760009201829052509385525050506001600160a01b03841660208084019190915260016040808501829052426060909501949094528a83526002825292909120835181559083015190918201906106499082610f70565b506040820151600282019061065e9082610f70565b50606082015160038201805460808501511515600160a01b026001600160a81b03199091166001600160a01b039093169290921791909117905560a0909101516004909101556001805480820182556000919091527fb10e2d527612073b26eecdfd717e6a320cf44b4afac2b0732d9fcbe2b7fa0cf60186905560405186907fd2a9ee5c43a624359451f15a570c6a06c0c2e1a6427f3ab16cdb726d2db74e949061070e90889088908690611030565b60405180910390a2505050505050565b606080600180548060200260200160405190810160405280929190818152602001828054801561076d57602002820191906000526020600020905b815481526020019060010190808311610759575b5050600154939550505067ffffffffffffffff821115905061079157610791610f09565b6040519080825280602002602001820160405280156107f157816020015b6040805160c08101825260008082526060602080840182905293830181905282018190526080820181905260a082015282526000199092019101816107af5790505b50905060005b6001548110156109c157600260006001838154811061081857610818611071565b906000526020600020015481526020019081526020016000206040518060c00160405290816000820154815260200160018201805461085690610ecf565b80601f016020809104026020016040519081016040528092919081815260200182805461088290610ecf565b80156108cf5780601f106108a4576101008083540402835291602001916108cf565b820191906000526020600020905b8154815290600101906020018083116108b257829003601f168201915b505050505081526020016002820180546108e890610ecf565b80601f016020809104026020016040519081016040528092919081815260200182805461091490610ecf565b80156109615780601f1061093657610100808354040283529160200191610961565b820191906000526020600020905b81548152906001019060200180831161094457829003601f168201915b505050918352505060038201546001600160a01b0381166020830152600160a01b900460ff161515604082015260049091015460609091015282518390839081106109ae576109ae611071565b60209081029190910101526001016107f7565b509091565b6000546001600160a01b031633146109f1576040516330cd747160e01b815260040160405180910390fd5b600081815260026020526040808220600301805460ff60a01b191690555182917f89732e6cdf6c8559465c242f7fff8361b21c560aafcb302cc84dc73578642b2691a250565b6000546001600160a01b03163314610a62576040516330cd747160e01b815260040160405180910390fd5b600080546001600160a01b0319166001600160a01b0392909216919091179055565b33600090815260036020908152604080832084845290915290205460ff16610abf5760405163046fcd8560e31b815260040160405180910390fd5b3360008181526003602090815260408083208584528252808320805460ff1916905592825260049052908120905b8154811015610b975782828281548110610b0957610b09611071565b906000526020600020015403610b8f5781548290610b2990600190611087565b81548110610b3957610b39611071565b9060005260206000200154828281548110610b5657610b56611071565b906000526020600020018190555081805480610b7457610b746110ae565b60019003818190600052602060002001600090559055610b97565b600101610aed565b50604051829033907fbd7d343a76cb95ae0e4391dff1b19b1894066d854717b1b63971cb7e4ad5641090600090a35050565b600060208284031215610bdb57600080fd5b5035919050565b6000815180845260005b81811015610c0857602081850181015186830182015201610bec565b506000602082860101526020601f19601f83011685010191505092915050565b86815260c060208201526000610c4160c0830188610be2565b8281036040840152610c538188610be2565b6001600160a01b039690961660608401525050911515608083015260a0909101529392505050565b80356001600160a01b0381168114610c9257600080fd5b919050565b600060208284031215610ca957600080fd5b610cb282610c7b565b9392505050565b60008151808452602080850194506020840160005b83811015610cea57815187529582019590820190600101610cce565b509495945050505050565b602081526000610cb26020830184610cb9565b60008083601f840112610d1a57600080fd5b50813567ffffffffffffffff811115610d3257600080fd5b602083019150836020828501011115610d4a57600080fd5b9250929050565b60008060008060008060808789031215610d6a57600080fd5b86359550602087013567ffffffffffffffff80821115610d8957600080fd5b610d958a838b01610d08565b90975095506040890135915080821115610dae57600080fd5b50610dbb89828a01610d08565b9094509250610dce905060608801610c7b565b90509295509295509295565b60008060408385031215610ded57600080fd5b610df683610c7b565b946020939093013593505050565b60006040808352610e186040840186610cb9565b6020848203818601528186518084528284019150828160051b85010183890160005b83811015610ebf57601f19878403018552815160c081518552878201518189870152610e6882870182610be2565b915050898201518582038b870152610e808282610be2565b6060848101516001600160a01b03169088015260808085015115159088015260a093840151939096019290925250509385019390850190600101610e3a565b50909a9950505050505050505050565b600181811c90821680610ee357607f821691505b602082108103610f0357634e487b7160e01b600052602260045260246000fd5b50919050565b634e487b7160e01b600052604160045260246000fd5b601f821115610f6b576000816000526020600020601f850160051c81016020861015610f485750805b601f850160051c820191505b81811015610f6757828155600101610f54565b5050505b505050565b815167ffffffffffffffff811115610f8a57610f8a610f09565b610f9e81610f988454610ecf565b84610f1f565b602080601f831160018114610fd35760008415610fbb5750858301515b600019600386901b1c1916600185901b178555610f67565b600085815260208120601f198616915b8281101561100257888601518255948401946001909101908401610fe3565b50858210156110205787850151600019600388901b60f8161c191681555b5050505050600190811b01905550565b6040815282604082015282846060830137600060608483018101919091526001600160a01b03929092166020820152601f909201601f191690910101919050565b634e487b7160e01b600052603260045260246000fd5b818103818111156110a857634e487b7160e01b600052601160045260246000fd5b92915050565b634e487b7160e01b600052603160045260246000fdfea2646970667358221220f801800e9b083d32cd54e6574ef9bcbf38f2b2caecc4a8338a9d12caec822f9064736f6c63430008180033",
  "linkReferences": {},
  "deployedLinkReferences": {}
}