{
  "_format": "hh-sol-artifact-1",
  "contractName": "AgentRegistry",
  "sourceName": "contracts/AgentRegistry.sol",
  "abi": [
    {
      "inputs": [],
      "stateMutability": "nonpayable",
      "type": "constructor"
    },
    {
      "inputs": [],
      "name": "AlphaNotRegistered",
      "type": "error"
    },
    {
      "inputs": [],
      "name": "AlreadyRegistered",
      "type": "error"
    },
    {
      "inputs": [],
      "name": "AlreadySubscribed",
      "type": "error"
    },
    {
      "inputs": [],
      "name": "NotOwner",
      "type": "error"
    },
    {
      "inputs": [],
      "name": "NotSubscribed",
      "type": "error"
    },
    {
      "anonymous": false,
      "inputs": [
        {
          "indexed": true,
          "internalType": "address",
          "name": "alpha",
          "type": "address"
        }
      ],
      "name": "AlphaDeactivated",
      "type": "event"
    },
    {
      "anonymous": false,
      "inputs": [
        {
          "indexed": true,
          "internalType": "address",
          "name": "alpha",
          "type": "address"
        },
        {
          "indexed": false,
          "internalType": "string",
          "name": "name",
          "type": "string"
        }
      ],
      "name": "AlphaRegistered",
      "type": "event"
    },
    {
      "anonymous": false,
      "inputs": [
        {
          "indexed": true,
          "internalType": "address",
          "name": "subscriber",
          "type": "address"
        },
        {
          "indexed": true,
          "internalType": "address",
          "name": "alpha",
          "type": "address"
        }
      ],
      "name": "Subscribed",
      "type": "event"
    },
    {
      "anonymous": false,
      "inputs": [
        {
          "indexed": true,
          "internalType": "address",
          "name": "subscriber",
          "type": "address"
        },
        {
          "indexed": true,
          "internalType": "address",
          "name": "alpha",
          "type": "address"
        }
      ],
      "name": "Unsubscribed",
      "type": "event"
    },
    {
      "inputs": [
        {
          "internalType": "uint256",
          "name": "",
          "type": "uint256"
        }
      ],
      "name": "alphaAddresses",
      "outputs": [
        {
          "internalType": "address",
          "name": "",
          "type": "address"
        }
      ],
      "stateMutability": "view",
      "type": "function"
    },
    {
      "inputs": [
        {
          "internalType": "address",
          "name": "",
          "type": "address"
        }
      ],
      "name": "alphaAgents",
      "outputs": [
        {
          "internalType": "string",
          "name": "name",
          "type": "string"
        },
        {
          "internalType": "string",
          "name": "pitchStyle",
          "type": "string"
        },
        {
          "internalType": "bool",
          "name": "active",
          "type": "bool"
        },
        {
          "internalType": "uint256",
          "name": "registeredAt",
          "type": "uint256"
        }
      ],
      "stateMutability": "view",
      "type": "function"
    },
    {
      "inputs": [
        {
          "internalType": "address",
          "name": "alpha",
          "type": "address"
        }
      ],
      "name": "deactivateAlpha",
      "outputs": [],
      "stateMutability": "nonpayable",
      "type": "function"
    },
    {
      "inputs": [],
      "name": "getAllAlphas",
      "outputs": [
        {
          "internalType": "address[]",
          "name": "addrs",
          "type": "address[]"
        },
        {
          "components": [
            {
              "internalType": "string",
              "name": "name",
              "type": "string"
            },
            {
              "internalType": "string",
              "name": "pitchStyle",
              "type": "string"
            },
            {
              "internalType": "bool",
              "name": "active",
              "type": "bool"
            },
            {
              "internalType": "uint256",
              "name": "registeredAt",
              "type": "uint256"
            }
          ],
          "internalType": "struct AgentRegistry.AlphaInfo[]",
          "name": "infos",
          "type": "tuple[]"
        }
      ],
      "stateMutability": "view",
      "type": "function"
    },
    {
      "inputs": [],
      "name": "getAlphaCount",
      "outputs": [
        {
          "internalType": "uint256",
          "name": "",
          "type": "uint256"
        }
      ],
      "stateMutability": "view",
      "type": "function"
    },
    {
      "inputs": [
        {
          "internalType": "address",
          "name": "beta",
          "type": "address"
        }
      ],
      "name": "getSubscriptions",
      "outputs": [
        {
          "internalType": "address[]",
          "name": "",
          "type": "address[]"
        }
      ],
      "stateMutability": "view",
      "type": "function"
    },
    {
      "inputs": [
        {
          "internalType": "address",
          "name": "",
          "type": "address"
        },
        {
          "internalType": "address",
          "name": "",
          "type": "address"
        }
      ],
      "name": "isSubscribed",
      "outputs": [
        {
          "internalType": "bool",
          "name": "",
          "type": "bool"
        }
      ],
      "stateMutability": "view",
      "type": "function"
    },
    {
      "inputs": [],
      "name": "owner",
      "outputs": [
        {
          "internalType": "address",
          "name": "",
          "type": "address"
        }
      ],
      "stateMutability": "view",
      "type": "function"
    },
    {
      "inputs": [
        {
          "internalType": "address",
          "name": "alpha",
          "type": "address"
        },
        {
          "internalType": "string",
          "name": "name",
          "type": "string"
        },
        {
          "internalType": "string",
          "name": "pitchStyle",
          "type": "string"
        }
      ],
      "name": "registerAlpha",
      "outputs": [],
      "stateMutability": "nonpayable",
      "type": "function"
    },
    {
      "inputs": [
        {
          "internalType": "address",
          "name": "alpha",
          "type": "address"
        }
      ],
      "name": "subscribe",
      "outputs": [],
      "stateMutability": "nonpayable",
      "type": "function"
    },
    {
      "inputs": [
        {
          "internalType": "address",
          "name": "newOwner",
          "type": "address"
        }
      ],
      "name": "transferOwnership",
      "outputs": [],
      "stateMutability": "nonpayable",
      "type": "function"
    },
    {
      "inputs": [
        {
          "internalType": "address",
          "name": "alpha",
          "type": "address"
        }
      ],
      "name": "unsubscribe",
      "outputs": [],
      "stateMutability": "nonpayable",
      "type": "function"
    }
  ],
  "bytecode": "0x608060405234801561001057600080fd5b50600080546001600160a01b031916331790556110cd806100326000396000f3fe608060405234801561001057600080fd5b50600436106100b35760003560e01c80638cb8ad1f116100715780638cb8ad1f146101545780638da5cb5b1461016a578063ace5a9431461017d578063e3958e9614610190578063f2fde38b146101b3578063f6416ef6146101c657600080fd5b8062065b51146100b857806341a7726a146100cd57806356271d54146100e05780635d6a4413146101105780637262561c14610130578063841372f114610143575b600080fd5b6100cb6100c6366004610c40565b610204565b005b6100cb6100db366004610cc1565b6103e4565b6100f36100ee366004610ce3565b6104ec565b6040516001600160a01b0390911681526020015b60405180910390f35b61012361011e366004610cc1565b610516565b6040516101079190610d41565b6100cb61013e366004610cc1565b61058c565b600154604051908152602001610107565b61015c61073e565b604051610107929190610d9a565b6000546100f3906001600160a01b031681565b6100cb61018b366004610cc1565b6109d9565b6101a361019e366004610cc1565b610a52565b6040516101079493929190610e48565b6100cb6101c1366004610cc1565b610b8e565b6101f46101d4366004610e81565b600360209081526000928352604080842090915290825290205460ff1681565b6040519015158152602001610107565b6000546001600160a01b0316331461022f576040516330cd747160e01b815260040160405180910390fd5b6001600160a01b0385166000908152600260208190526040909120015460ff161561026d57604051630ea075bf60e21b815260040160405180910390fd5b604051806080016040528085858080601f016020809104026020016040519081016040528093929190818152602001838380828437600092019190915250505090825250604080516020601f860181900481028201810190925284815291810191908590859081908401838280828437600092018290525093855250506001602080850191909152426040948501526001600160a01b038a1683526002905250208151819061031c9082610f55565b50602082015160018201906103319082610f55565b5060408281015160028301805460ff19169115159190911790556060909201516003909101556001805480820182556000919091527fb10e2d527612073b26eecdfd717e6a320cf44b4afac2b0732d9fcbe2b7fa0cf60180546001600160a01b0319166001600160a01b03881690811790915590517f1fd5fe9473aff1d6c1adcc035fb4b772b3a0e3cee9244a112337bc15443143af906103d59087908790611015565b60405180910390a25050505050565b6001600160a01b0381166000908152600260208190526040909120015460ff1661042157604051634bc74afb60e11b815260040160405180910390fd5b3360009081526003602090815260408083206001600160a01b038516845290915290205460ff161561046657604051632fec509960e11b815260040160405180910390fd5b3360008181526003602090815260408083206001600160a01b038616808552908352818420805460ff191660019081179091558585526004845282852080549182018155855292842090920180546001600160a01b03191683179055519092917f5af76814d21ef4a656d75bdbdb9cc3efa85af5efca9dbca0397824217d9344b791a350565b600181815481106104fc57600080fd5b6000918252602090912001546001600160a01b0316905081565b6001600160a01b03811660009081526004602090815260409182902080548351818402810184019094528084526060939283018282801561058057602002820191906000526020600020905b81546001600160a01b03168152600190910190602001808311610562575b50505050509050919050565b3360009081526003602090815260408083206001600160a01b038516845290915290205460ff166105d05760405163046fcd8560e31b815260040160405180910390fd5b3360008181526003602090815260408083206001600160a01b03861684528252808320805460ff1916905592825260049052908120905b815481101561070357826001600160a01b031682828154811061062c5761062c611044565b6000918252602090912001546001600160a01b0316036106fb57815482906106569060019061105a565b8154811061066657610666611044565b9060005260206000200160009054906101000a90046001600160a01b031682828154811061069657610696611044565b9060005260206000200160006101000a8154816001600160a01b0302191690836001600160a01b03160217905550818054806106d4576106d4611081565b600082815260209020810160001990810180546001600160a01b0319169055019055610703565b600101610607565b506040516001600160a01b0383169033907f7773c30acd0762ed6b4b92a9aa2c6b3c074e29ad93b334cbed8ba807c596f13a90600090a35050565b606080600180548060200260200160405190810160405280929190818152602001828054801561079757602002820191906000526020600020905b81546001600160a01b03168152600190910190602001808311610779575b5050600154939550505067ffffffffffffffff82111590506107bb576107bb610eb4565b60405190808252806020026020018201604052801561081957816020015b61080660405180608001604052806060815260200160608152602001600015158152602001600081525090565b8152602001906001900390816107d95790505b50905060005b6001548110156109d457600260006001838154811061084057610840611044565b60009182526020808320909101546001600160a01b03168352820192909252604090810190912081516080810190925280548290829061087f90610eca565b80601f01602080910402602001604051908101604052809291908181526020018280546108ab90610eca565b80156108f85780601f106108cd576101008083540402835291602001916108f8565b820191906000526020600020905b8154815290600101906020018083116108db57829003601f168201915b5050505050815260200160018201805461091190610eca565b80601f016020809104026020016040519081016040528092919081815260200182805461093d90610eca565b801561098a5780601f1061095f5761010080835404028352916020019161098a565b820191906000526020600020905b81548152906001019060200180831161096d57829003601f168201915b5050509183525050600282015460ff161515602082015260039091015460409091015282518390839081106109c1576109c1611044565b602090810291909101015260010161081f565b509091565b6000546001600160a01b03163314610a04576040516330cd747160e01b815260040160405180910390fd5b6001600160a01b0381166000818152600260208190526040808320909101805460ff19169055517ff605a5a6c62a0ec423ad1bdc2a44f55690ebbbbb2b3daae1c9e6240c45b6d49d9190a250565b600260205260009081526040902080548190610a6d90610eca565b80601f0160208091040260200160405190810160405280929190818152602001828054610a9990610eca565b8015610ae65780601f10610abb57610100808354040283529160200191610ae6565b820191906000526020600020905b815481529060010190602001808311610ac957829003601f168201915b505050505090806001018054610afb90610eca565b80601f0160208091040260200160405190810160405280929190818152602001828054610b2790610eca565b8015610b745780601f10610b4957610100808354040283529160200191610b74565b820191906000526020600020905b815481529060010190602001808311610b5757829003601f168201915b505050506002830154600390930154919260ff1691905084565b6000546001600160a01b03163314610bb9576040516330cd747160e01b815260040160405180910390fd5b600080546001600160a01b0319166001600160a01b0392909216919091179055565b80356001600160a01b0381168114610bf257600080fd5b919050565b60008083601f840112610c0957600080fd5b50813567ffffffffffffffff811115610c2157600080fd5b602083019150836020828501011115610c3957600080fd5b9250929050565b600080600080600060608688031215610c5857600080fd5b610c6186610bdb565b9450602086013567ffffffffffffffff80821115610c7e57600080fd5b610c8a89838a01610bf7565b90965094506040880135915080821115610ca357600080fd5b50610cb088828901610bf7565b969995985093965092949392505050565b600060208284031215610cd357600080fd5b610cdc82610bdb565b9392505050565b600060208284031215610cf557600080fd5b5035919050565b60008151808452602080850194506020840160005b83811015610d365781516001600160a01b031687529582019590820190600101610d11565b509495945050505050565b602081526000610cdc6020830184610cfc565b6000815180845260005b81811015610d7a57602081850181015186830182015201610d5e565b506000602082860101526020601f19601f83011685010191505092915050565b60006040808352610dae6040840186610cfc565b6020848203818601528186518084528284019150828160051b85010183890160005b83811015610e3857601f19878403018552815160808151818652610df682870182610d54565b9150508782015185820389870152610e0e8282610d54565b838c01511515878d0152606093840151939096019290925250509385019390850190600101610dd0565b50909a9950505050505050505050565b608081526000610e5b6080830187610d54565b8281036020840152610e6d8187610d54565b941515604084015250506060015292915050565b60008060408385031215610e9457600080fd5b610e9d83610bdb565b9150610eab60208401610bdb565b90509250929050565b634e487b7160e01b600052604160045260246000fd5b600181811c90821680610ede57607f821691505b602082108103610efe57634e487b7160e01b600052602260045260246000fd5b50919050565b601f821115610f50576000816000526020600020601f850160051c81016020861015610f2d5750805b601f850160051c820191505b81811015610f4c57828155600101610f39565b5050505b505050565b815167ffffffffffffffff811115610f6f57610f6f610eb4565b610f8381610f7d8454610eca565b84610f04565b602080601f831160018114610fb85760008415610fa05750858301515b600019600386901b1c1916600185901b178555610f4c565b600085815260208120601f198616915b82811015610fe757888601518255948401946001909101908401610fc8565b50858210156110055787850151600019600388901b60f8161c191681555b5050505050600190811b01905550565b60208152816020820152818360408301376000818301604090810191909152601f909201601f19160101919050565b634e487b7160e01b600052603260045260246000fd5b8181038181111561107b57634e487b7160e01b600052601160045260246000fd5b92915050565b634e487b7160e01b600052603160045260246000fdfea264697066735822122022a0aca7969e3213d451107e260c764cc5f2a5ab62e8be9a3917e180e3f4795e64736f6c63430008180033",
  "linkReferences": {},
  "deployedLinkReferences": {}
}